{
  "_format": "hh-sol-artifact-1",
  "contractName": "UniswapIntegrationHelper",
  "sourceName": "contracts/UniswapIntegrationHelper.sol",
  "abi": [
    {
      "inputs": [
        {
          "internalType": "address",
          "name": "_factory",
          "type": "address"
        },
        {
          "internalType": "address",
          "name": "_WETH9",
          "type": "address"
        },
        {
          "internalType": "address",
          "name": "_aavePoolAddress",
          "type": "address"
        },
        {
          "internalType": "address",
          "name": "_aaveOracleAddress",
          "type": "address"
        },
        {
          "internalType": "address",
          "name": "_aaveAusdcTokenAddress",
          "type": "address"
        }
      ],
      "stateMutability": "nonpayable",
      "type": "constructor"
    },
    {
      "inputs": [],
      "name": "WETH9",
      "outputs": [
        {
          "internalType": "address",
          "name": "",
          "type": "address"
        }
      ],
      "stateMutability": "view",
      "type": "function"
    },
    {
      "inputs": [
        {
          "internalType": "address",
          "name": "tokenBorrowed",
          "type": "address"
        },
        {
          "internalType": "uint256",
          "name": "units",
          "type": "uint256"
        },
        {
          "internalType": "address",
          "name": "collateralAddress",
          "type": "address"
        },
        {
          "internalType": "address",
          "name": "user",
          "type": "address"
        },
        {
          "internalType": "uint256",
          "name": "targetHealth",
          "type": "uint256"
        }
      ],
      "name": "_repayAndWithdrawCollateral",
      "outputs": [],
      "stateMutability": "nonpayable",
      "type": "function"
    },
    {
      "inputs": [
        {
          "internalType": "address",
          "name": "tokenToBorrow",
          "type": "address"
        },
        {
          "internalType": "uint256",
          "name": "units",
          "type": "uint256"
        },
        {
          "internalType": "address",
          "name": "collateralAddress",
          "type": "address"
        },
        {
          "internalType": "uint256",
          "name": "flashCollateral",
          "type": "uint256"
        },
        {
          "internalType": "uint256",
          "name": "userCollateral",
          "type": "uint256"
        },
        {
          "internalType": "address",
          "name": "user",
          "type": "address"
        }
      ],
      "name": "_suppllyCollateralAndBorrow",
      "outputs": [],
      "stateMutability": "nonpayable",
      "type": "function"
    },
    {
      "inputs": [],
      "name": "aUsdc",
      "outputs": [
        {
          "internalType": "contract IERC20",
          "name": "",
          "type": "address"
        }
      ],
      "stateMutability": "view",
      "type": "function"
    },
    {
      "inputs": [
        {
          "internalType": "uint256",
          "name": "healthFactor",
          "type": "uint256"
        },
        {
          "internalType": "uint256",
          "name": "totalCollateralBase",
          "type": "uint256"
        },
        {
          "internalType": "uint256",
          "name": "totalBorrowBase",
          "type": "uint256"
        },
        {
          "internalType": "uint256",
          "name": "liquidationThreshold",
          "type": "uint256"
        },
        {
          "internalType": "address",
          "name": "collateralAddress",
          "type": "address"
        }
      ],
      "name": "calculateWithdraw",
      "outputs": [
        {
          "internalType": "uint256",
          "name": "",
          "type": "uint256"
        }
      ],
      "stateMutability": "view",
      "type": "function"
    },
    {
      "inputs": [
        {
          "internalType": "address",
          "name": "tokenAddress",
          "type": "address"
        },
        {
          "internalType": "uint256",
          "name": "units",
          "type": "uint256"
        },
        {
          "internalType": "uint256",
          "name": "amount",
          "type": "uint256"
        }
      ],
      "name": "depositToken",
      "outputs": [],
      "stateMutability": "nonpayable",
      "type": "function"
    },
    {
      "inputs": [],
      "name": "factory",
      "outputs": [
        {
          "internalType": "address",
          "name": "",
          "type": "address"
        }
      ],
      "stateMutability": "view",
      "type": "function"
    },
    {
      "inputs": [],
      "name": "getPoolAddress",
      "outputs": [],
      "stateMutability": "view",
      "type": "function"
    },
    {
      "inputs": [
        {
          "internalType": "address",
          "name": "assest",
          "type": "address"
        }
      ],
      "name": "getPrice",
      "outputs": [
        {
          "internalType": "uint256",
          "name": "",
          "type": "uint256"
        }
      ],
      "stateMutability": "view",
      "type": "function"
    },
    {
      "inputs": [
        {
          "internalType": "address",
          "name": "user",
          "type": "address"
        }
      ],
      "name": "getUserData",
      "outputs": [
        {
          "internalType": "uint256",
          "name": "totalCollateralBase",
          "type": "uint256"
        },
        {
          "internalType": "uint256",
          "name": "totalDebtBase",
          "type": "uint256"
        },
        {
          "internalType": "uint256",
          "name": "availableBorrowsBase",
          "type": "uint256"
        },
        {
          "internalType": "uint256",
          "name": "currentLiquidationThreshold",
          "type": "uint256"
        },
        {
          "internalType": "uint256",
          "name": "ltv",
          "type": "uint256"
        },
        {
          "internalType": "uint256",
          "name": "healthFactor",
          "type": "uint256"
        }
      ],
      "stateMutability": "view",
      "type": "function"
    },
    {
      "inputs": [],
      "name": "oracleAddress",
      "outputs": [
        {
          "internalType": "contract IPriceOracleGetter",
          "name": "",
          "type": "address"
        }
      ],
      "stateMutability": "view",
      "type": "function"
    },
    {
      "inputs": [],
      "name": "poolAddress",
      "outputs": [
        {
          "internalType": "contract IPool",
          "name": "",
          "type": "address"
        }
      ],
      "stateMutability": "view",
      "type": "function"
    },
    {
      "inputs": [],
      "name": "refundETH",
      "outputs": [],
      "stateMutability": "payable",
      "type": "function"
    },
    {
      "inputs": [
        {
          "internalType": "address",
          "name": "token",
          "type": "address"
        },
        {
          "internalType": "uint256",
          "name": "amountMinimum",
          "type": "uint256"
        },
        {
          "internalType": "address",
          "name": "recipient",
          "type": "address"
        }
      ],
      "name": "sweepToken",
      "outputs": [],
      "stateMutability": "payable",
      "type": "function"
    },
    {
      "inputs": [
        {
          "internalType": "uint256",
          "name": "fee0",
          "type": "uint256"
        },
        {
          "internalType": "uint256",
          "name": "fee1",
          "type": "uint256"
        },
        {
          "internalType": "bytes",
          "name": "data",
          "type": "bytes"
        }
      ],
      "name": "uniswapV3FlashCallback",
      "outputs": [],
      "stateMutability": "nonpayable",
      "type": "function"
    },
    {
      "inputs": [
        {
          "internalType": "int256",
          "name": "amount0Delta",
          "type": "int256"
        },
        {
          "internalType": "int256",
          "name": "amount1Delta",
          "type": "int256"
        },
        {
          "internalType": "bytes",
          "name": "data",
          "type": "bytes"
        }
      ],
      "name": "uniswapV3SwapCallback",
      "outputs": [],
      "stateMutability": "nonpayable",
      "type": "function"
    },
    {
      "inputs": [
        {
          "internalType": "uint256",
          "name": "amountMinimum",
          "type": "uint256"
        },
        {
          "internalType": "address",
          "name": "recipient",
          "type": "address"
        }
      ],
      "name": "unwrapWETH9",
      "outputs": [],
      "stateMutability": "payable",
      "type": "function"
    },
    {
      "inputs": [
        {
          "internalType": "address",
          "name": "tokenAddress",
          "type": "address"
        },
        {
          "internalType": "uint256",
          "name": "totalAmount",
          "type": "uint256"
        }
      ],
      "name": "withdrawToken",
      "outputs": [],
      "stateMutability": "nonpayable",
      "type": "function"
    },
    {
      "stateMutability": "payable",
      "type": "receive"
    }
  ],
  "bytecode": "0x60c06040523480156200001157600080fd5b50604051620037fb380380620037fb8339818101604052810190620000379190620001e0565b8484848484826000806101000a81548173ffffffffffffffffffffffffffffffffffffffff021916908373ffffffffffffffffffffffffffffffffffffffff16021790555081600160006101000a81548173ffffffffffffffffffffffffffffffffffffffff021916908373ffffffffffffffffffffffffffffffffffffffff16021790555080600260006101000a81548173ffffffffffffffffffffffffffffffffffffffff021916908373ffffffffffffffffffffffffffffffffffffffff1602179055505050508173ffffffffffffffffffffffffffffffffffffffff1660808173ffffffffffffffffffffffffffffffffffffffff16815250508073ffffffffffffffffffffffffffffffffffffffff1660a08173ffffffffffffffffffffffffffffffffffffffff16815250505050505050505062000268565b600080fd5b600073ffffffffffffffffffffffffffffffffffffffff82169050919050565b6000620001a8826200017b565b9050919050565b620001ba816200019b565b8114620001c657600080fd5b50565b600081519050620001da81620001af565b92915050565b600080600080600060a08688031215620001ff57620001fe62000176565b5b60006200020f88828901620001c9565b95505060206200022288828901620001c9565b94505060406200023588828901620001c9565b93505060606200024888828901620001c9565b92505060806200025b88828901620001c9565b9150509295509295909350565b60805160a051613535620002c6600039600081816101140152818161066f01528181610757015281816107f201528181611d0a01528181611d6a0152611deb0152600081816111aa015281816112c0015261147301526135356000f3fe60806040526004361061010d5760003560e01c806399c6d2de11610095578063df2ab5bb11610064578063df2ab5bb146103c2578063e9cbafb0146103de578063f586c6d914610407578063fa461e331461041e578063ffc9896b14610447576101a2565b806399c6d2de1461031a5780639e281a9814610343578063a89ae4ba1461036c578063c45a015514610397576101a2565b806349404b7c116100dc57806349404b7c146102565780634aa4a4fc14610272578063620a22621461029d57806365196e1e146102c657806370586114146102f1576101a2565b806305116f0b146101a757806312210e8a146101e45780631755ff21146101ee57806341976e0914610219576101a2565b366101a2577f000000000000000000000000000000000000000000000000000000000000000073ffffffffffffffffffffffffffffffffffffffff163373ffffffffffffffffffffffffffffffffffffffff16146101a0576040517f08c379a00000000000000000000000000000000000000000000000000000000081526004016101979061222d565b60405180910390fd5b005b600080fd5b3480156101b357600080fd5b506101ce60048036038101906101c991906122f5565b610489565b6040516101db919061237f565b60405180910390f35b6101ec610587565b005b3480156101fa57600080fd5b5061020361059d565b60405161021091906123f9565b60405180910390f35b34801561022557600080fd5b50610240600480360381019061023b9190612414565b6105c1565b60405161024d919061237f565b60405180910390f35b610270600480360381019061026b9190612441565b61066b565b005b34801561027e57600080fd5b506102876107f0565b6040516102949190612490565b60405180910390f35b3480156102a957600080fd5b506102c460048036038101906102bf91906124ab565b610814565b005b3480156102d257600080fd5b506102db610dc0565b6040516102e89190612547565b60405180910390f35b3480156102fd57600080fd5b5061031860048036038101906103139190612562565b610de6565b005b34801561032657600080fd5b50610341600480360381019061033c91906125ef565b610f26565b005b34801561034f57600080fd5b5061036a60048036038101906103659190612642565b6110dd565b005b34801561037857600080fd5b50610381611182565b60405161038e91906126a3565b60405180910390f35b3480156103a357600080fd5b506103ac6111a8565b6040516103b99190612490565b60405180910390f35b6103dc60048036038101906103d791906126be565b6111cc565b005b3480156103ea57600080fd5b5061040560048036038101906104009190612776565b6112a8565b005b34801561041357600080fd5b5061041c6113c9565b005b34801561042a57600080fd5b5061044560048036038101906104409190612820565b61145b565b005b34801561045357600080fd5b5061046e60048036038101906104699190612414565b6117a0565b60405161048096959493929190612894565b60405180910390f35b6000806064846104999190612953565b905060008186896104aa9190612984565b6104b49190612953565b9050600081886104c491906129de565b90506000600160009054906101000a900473ffffffffffffffffffffffffffffffffffffffff1673ffffffffffffffffffffffffffffffffffffffff1663b3596f07876040518263ffffffff1660e01b81526004016105239190612490565b602060405180830381865afa158015610540573d6000803e3d6000fd5b505050506040513d601f19601f820116820180604052508101906105649190612a27565b9050600081836105749190612953565b9050809550505050505095945050505050565b600047111561059b5761059a3347611879565b5b565b60008054906101000a900473ffffffffffffffffffffffffffffffffffffffff1681565b600080600160009054906101000a900473ffffffffffffffffffffffffffffffffffffffff1673ffffffffffffffffffffffffffffffffffffffff1663b3596f07846040518263ffffffff1660e01b815260040161061f9190612490565b602060405180830381865afa15801561063c573d6000803e3d6000fd5b505050506040513d601f19601f820116820180604052508101906106609190612a27565b905080915050919050565b60007f000000000000000000000000000000000000000000000000000000000000000073ffffffffffffffffffffffffffffffffffffffff166370a08231306040518263ffffffff1660e01b81526004016106c69190612490565b602060405180830381865afa1580156106e3573d6000803e3d6000fd5b505050506040513d601f19601f820116820180604052508101906107079190612a27565b90508281101561074c576040517f08c379a000000000000000000000000000000000000000000000000000000000815260040161074390612aa0565b60405180910390fd5b60008111156107eb577f000000000000000000000000000000000000000000000000000000000000000073ffffffffffffffffffffffffffffffffffffffff16632e1a7d4d826040518263ffffffff1660e01b81526004016107ae919061237f565b600060405180830381600087803b1580156107c857600080fd5b505af11580156107dc573d6000803e3d6000fd5b505050506107ea8282611879565b5b505050565b7f000000000000000000000000000000000000000000000000000000000000000081565b6108526040518060400160405280600581526020017f557365723a000000000000000000000000000000000000000000000000000000815250611979565b61085b82611a12565b60008054906101000a900473ffffffffffffffffffffffffffffffffffffffff1673ffffffffffffffffffffffffffffffffffffffff1663573ade8186866002866040518563ffffffff1660e01b81526004016108bb9493929190612afb565b6020604051808303816000875af11580156108da573d6000803e3d6000fd5b505050506040513d601f19601f820116820180604052508101906108fe9190612a27565b5060008060008060009054906101000a900473ffffffffffffffffffffffffffffffffffffffff1673ffffffffffffffffffffffffffffffffffffffff1663bf92857c866040518263ffffffff1660e01b815260040161095e9190612490565b60c060405180830381865afa15801561097b573d6000803e3d6000fd5b505050506040513d601f19601f8201168201806040525081019061099f9190612b40565b5050935050925092506109e66040518060400160405280601081526020017f546f74616c204465627420426173653a00000000000000000000000000000000815250611979565b6109ef82611aab565b60008211610c4257600260009054906101000a900473ffffffffffffffffffffffffffffffffffffffff1673ffffffffffffffffffffffffffffffffffffffff166323b872dd8630600260009054906101000a900473ffffffffffffffffffffffffffffffffffffffff1673ffffffffffffffffffffffffffffffffffffffff166370a082318a6040518263ffffffff1660e01b8152600401610a929190612490565b602060405180830381865afa158015610aaf573d6000803e3d6000fd5b505050506040513d601f19601f82011682018060405250810190610ad39190612a27565b6040518463ffffffff1660e01b8152600401610af193929190612bcd565b6020604051808303816000875af1158015610b10573d6000803e3d6000fd5b505050506040513d601f19601f82011682018060405250810190610b349190612c3c565b50610b736040518060400160405280601681526020017f546f74616c20436f6c6c61746572616c20426173653a00000000000000000000815250611979565b610b7c83611aab565b60008054906101000a900473ffffffffffffffffffffffffffffffffffffffff1673ffffffffffffffffffffffffffffffffffffffff166369328dec877fffffffffffffffffffffffffffffffffffffffffffffffffffffffffffffffff886040518463ffffffff1660e01b8152600401610bf993929190612c69565b6020604051808303816000875af1158015610c18573d6000803e3d6000fd5b505050506040513d601f19601f82011682018060405250810190610c3c9190612a27565b50610db6565b6000610c51858585858b610489565b905060008054906101000a900473ffffffffffffffffffffffffffffffffffffffff1673ffffffffffffffffffffffffffffffffffffffff166369328dec8883896040518463ffffffff1660e01b8152600401610cb093929190612c69565b6020604051808303816000875af1158015610ccf573d6000803e3d6000fd5b505050506040513d601f19601f82011682018060405250810190610cf39190612a27565b50610d326040518060400160405280601d81526020017f557365722042616c616e63652061667465722077697468647261773a20000000815250611979565b610db48773ffffffffffffffffffffffffffffffffffffffff166370a08231886040518263ffffffff1660e01b8152600401610d6e9190612490565b602060405180830381865afa158015610d8b573d6000803e3d6000fd5b505050506040513d601f19601f82011682018060405250810190610daf9190612a27565b611aab565b505b5050505050505050565b600260009054906101000a900473ffffffffffffffffffffffffffffffffffffffff1681565b60008284610df49190612ca0565b905060008054906101000a900473ffffffffffffffffffffffffffffffffffffffff1673ffffffffffffffffffffffffffffffffffffffff1663617ba03786838560006040518563ffffffff1660e01b8152600401610e569493929190612d3f565b600060405180830381600087803b158015610e7057600080fd5b505af1158015610e84573d6000803e3d6000fd5b5050505060008054906101000a900473ffffffffffffffffffffffffffffffffffffffff1673ffffffffffffffffffffffffffffffffffffffff1663a415bcad888860026000876040518663ffffffff1660e01b8152600401610eeb959493929190612d84565b600060405180830381600087803b158015610f0557600080fd5b505af1158015610f19573d6000803e3d6000fd5b5050505050505050505050565b8273ffffffffffffffffffffffffffffffffffffffff166323b872dd3330846040518463ffffffff1660e01b8152600401610f6393929190612bcd565b6020604051808303816000875af1158015610f82573d6000803e3d6000fd5b505050506040513d601f19601f82011682018060405250810190610fa69190612c3c565b508273ffffffffffffffffffffffffffffffffffffffff1663095ea7b360008054906101000a900473ffffffffffffffffffffffffffffffffffffffff16836040518363ffffffff1660e01b8152600401611002929190612dd7565b6020604051808303816000875af1158015611021573d6000803e3d6000fd5b505050506040513d601f19601f820116820180604052508101906110459190612c3c565b5060008054906101000a900473ffffffffffffffffffffffffffffffffffffffff1673ffffffffffffffffffffffffffffffffffffffff1663617ba03784843060006040518563ffffffff1660e01b81526004016110a69493929190612d3f565b600060405180830381600087803b1580156110c057600080fd5b505af11580156110d4573d6000803e3d6000fd5b50505050505050565b60008054906101000a900473ffffffffffffffffffffffffffffffffffffffff1673ffffffffffffffffffffffffffffffffffffffff166369328dec8383336040518463ffffffff1660e01b815260040161113a93929190612c69565b6020604051808303816000875af1158015611159573d6000803e3d6000fd5b505050506040513d601f19601f8201168201806040525081019061117d9190612a27565b505050565b600160009054906101000a900473ffffffffffffffffffffffffffffffffffffffff1681565b7f000000000000000000000000000000000000000000000000000000000000000081565b60008373ffffffffffffffffffffffffffffffffffffffff166370a08231306040518263ffffffff1660e01b81526004016112079190612490565b602060405180830381865afa158015611224573d6000803e3d6000fd5b505050506040513d601f19601f820116820180604052508101906112489190612a27565b90508281101561128d576040517f08c379a000000000000000000000000000000000000000000000000000000000815260040161128490612e4c565b60405180910390fd5b60008111156112a2576112a1848383611b44565b5b50505050565b600082828101906112b991906130a9565b90506112e97f00000000000000000000000000000000000000000000000000000000000000008260600151611c99565b5060006112fa826000015187611ce5565b9050600061130c836020015187611ce5565b905060008360600151600001519050600084606001516020015190506000808660a001511561134057839050829150611347565b8290508391505b86608001511561137557611370828860c00151838a60e001518b61010001518c60400151610de6565b611390565b61138f828860c00151838a604001518b6101200151610814565b5b60008611156113a6576113a584303389611d08565b5b60008511156113bc576113bb83303388611d08565b5b5050505050505050505050565b60008054906101000a900473ffffffffffffffffffffffffffffffffffffffff1673ffffffffffffffffffffffffffffffffffffffff16630542975c6040518163ffffffff1660e01b8152600401602060405180830381865afa158015611434573d6000803e3d6000fd5b505050506040513d601f19601f820116820180604052508101906114589190613115565b50565b6000828281019061146c91906130a9565b905061149c7f00000000000000000000000000000000000000000000000000000000000000008260600151611c99565b506000806000806000808660a001511561155f576114ee6040518060400160405280601981526020017f436f6c6c61746572616c20616d6f756e742064656c74613a2000000000000000815250611979565b6114f78b611ee5565b6115356040518060400160405280601481526020017f546f6b656e20616d6f756e742064656c74613a20000000000000000000000000815250611979565b61153e8a611ee5565b866060015160200151935086606001516000015192508991508a905061160a565b61159d6040518060400160405280601981526020017f436f6c6c61746572616c20616d6f756e742064656c74613a2000000000000000815250611979565b6115a68a611ee5565b6115e46040518060400160405280601481526020017f546f6b656e20616d6f756e742064656c74613a20000000000000000000000000815250611979565b6115ed8b611ee5565b866060015160000151935086606001516020015192508a91508990505b8660800151156116d4578395508194506116586040518060400160405280600c81526020017f50617920416d6f756e743a200000000000000000000000000000000000000000815250611979565b61166185611aab565b61169f6040518060400160405280600b81526020017f50617920546f6b656e3a20000000000000000000000000000000000000000000815250611979565b6116a886611a12565b6116c38486858a60e001518b61010001518c60400151610de6565b6116cf86303388611d08565b611793565b8295508094506117186040518060400160405280600c81526020017f50617920416d6f756e743a200000000000000000000000000000000000000000815250611979565b61172185611aab565b61175f6040518060400160405280600b81526020017f50617920546f6b656e3a20000000000000000000000000000000000000000000815250611979565b61176886611a12565b611782848860c00151858a604001518b6101200151610814565b6117928688604001513388611d08565b5b5050505050505050505050565b60008060008060008060008060008060008060008054906101000a900473ffffffffffffffffffffffffffffffffffffffff1673ffffffffffffffffffffffffffffffffffffffff1663bf92857c8e6040518263ffffffff1660e01b815260040161180b9190612490565b60c060405180830381865afa158015611828573d6000803e3d6000fd5b505050506040513d601f19601f8201168201806040525081019061184c9190612b40565b9550955095509550955095508585858585859b509b509b509b509b509b5050505050505091939550919395565b60008273ffffffffffffffffffffffffffffffffffffffff1682600067ffffffffffffffff8111156118ae576118ad612e82565b5b6040519080825280601f01601f1916602001820160405280156118e05781602001600182028036833780820191505090505b506040516118ee91906131bc565b60006040518083038185875af1925050503d806000811461192b576040519150601f19603f3d011682016040523d82523d6000602084013e611930565b606091505b5050905080611974576040517f08c379a000000000000000000000000000000000000000000000000000000000815260040161196b9061321f565b60405180910390fd5b505050565b611a0f8160405160240161198d9190613283565b6040516020818303038152906040527f41304fac000000000000000000000000000000000000000000000000000000007bffffffffffffffffffffffffffffffffffffffffffffffffffffffff19166020820180517bffffffffffffffffffffffffffffffffffffffffffffffffffffffff8381831617835250505050611f7e565b50565b611aa881604051602401611a269190612490565b6040516020818303038152906040527f2c2ecbc2000000000000000000000000000000000000000000000000000000007bffffffffffffffffffffffffffffffffffffffffffffffffffffffff19166020820180517bffffffffffffffffffffffffffffffffffffffffffffffffffffffff8381831617835250505050611f7e565b50565b611b4181604051602401611abf919061237f565b6040516020818303038152906040527ff82c50f1000000000000000000000000000000000000000000000000000000007bffffffffffffffffffffffffffffffffffffffffffffffffffffffff19166020820180517bffffffffffffffffffffffffffffffffffffffffffffffffffffffff8381831617835250505050611f7e565b50565b6000808473ffffffffffffffffffffffffffffffffffffffff1663a9059cbb60e01b8585604051602401611b79929190612dd7565b604051602081830303815290604052907bffffffffffffffffffffffffffffffffffffffffffffffffffffffff19166020820180517bffffffffffffffffffffffffffffffffffffffffffffffffffffffff8381831617835250505050604051611be391906131bc565b6000604051808303816000865af19150503d8060008114611c20576040519150601f19603f3d011682016040523d82523d6000602084013e611c25565b606091505b5091509150818015611c535750600081511480611c52575080806020019051810190611c519190612c3c565b5b5b611c92576040517f08c379a0000000000000000000000000000000000000000000000000000000008152600401611c89906132f1565b60405180910390fd5b5050505050565b6000611ca58383611fa7565b90508073ffffffffffffffffffffffffffffffffffffffff163373ffffffffffffffffffffffffffffffffffffffff1614611cdf57600080fd5b92915050565b6000828284611cf49190612ca0565b9150811015611d0257600080fd5b92915050565b7f000000000000000000000000000000000000000000000000000000000000000073ffffffffffffffffffffffffffffffffffffffff168473ffffffffffffffffffffffffffffffffffffffff16148015611d635750804710155b15611e8d577f000000000000000000000000000000000000000000000000000000000000000073ffffffffffffffffffffffffffffffffffffffff1663d0e30db0826040518263ffffffff1660e01b81526004016000604051808303818588803b158015611dd057600080fd5b505af1158015611de4573d6000803e3d6000fd5b50505050507f000000000000000000000000000000000000000000000000000000000000000073ffffffffffffffffffffffffffffffffffffffff1663a9059cbb83836040518363ffffffff1660e01b8152600401611e44929190612dd7565b6020604051808303816000875af1158015611e63573d6000803e3d6000fd5b505050506040513d601f19601f82011682018060405250810190611e879190612c3c565b50611edf565b3073ffffffffffffffffffffffffffffffffffffffff168373ffffffffffffffffffffffffffffffffffffffff161415611ed157611ecc848383611b44565b611ede565b611edd84848484612078565b5b5b50505050565b611f7b81604051602401611ef99190613320565b6040516020818303038152906040527f2d5b6cb9000000000000000000000000000000000000000000000000000000007bffffffffffffffffffffffffffffffffffffffffffffffffffffffff19166020820180517bffffffffffffffffffffffffffffffffffffffffffffffffffffffff8381831617835250505050611f7e565b50565b60008151905060006a636f6e736f6c652e6c6f679050602083016000808483855afa5050505050565b6000816020015173ffffffffffffffffffffffffffffffffffffffff16826000015173ffffffffffffffffffffffffffffffffffffffff1610611fe957600080fd5b8282600001518360200151846040015160405160200161200b9392919061334a565b604051602081830303815290604052805190602001207fe34f199b19b2b4f47f68442619d555527d244f78a3297ea89325f843f87b8b5460001b6040516020016120579392919061344b565b6040516020818303038152906040528051906020012060001c905092915050565b6000808573ffffffffffffffffffffffffffffffffffffffff166323b872dd60e01b8686866040516024016120af93929190612bcd565b604051602081830303815290604052907bffffffffffffffffffffffffffffffffffffffffffffffffffffffff19166020820180517bffffffffffffffffffffffffffffffffffffffffffffffffffffffff838183161783525050505060405161211991906131bc565b6000604051808303816000865af19150503d8060008114612156576040519150601f19603f3d011682016040523d82523d6000602084013e61215b565b606091505b509150915081801561218957506000815114806121885750808060200190518101906121879190612c3c565b5b5b6121c8576040517f08c379a00000000000000000000000000000000000000000000000000000000081526004016121bf906134df565b60405180910390fd5b505050505050565b600082825260208201905092915050565b7f4e6f742057455448390000000000000000000000000000000000000000000000600082015250565b60006122176009836121d0565b9150612222826121e1565b602082019050919050565b600060208201905081810360008301526122468161220a565b9050919050565b6000604051905090565b600080fd5b600080fd5b6000819050919050565b61227481612261565b811461227f57600080fd5b50565b6000813590506122918161226b565b92915050565b600073ffffffffffffffffffffffffffffffffffffffff82169050919050565b60006122c282612297565b9050919050565b6122d2816122b7565b81146122dd57600080fd5b50565b6000813590506122ef816122c9565b92915050565b600080600080600060a0868803121561231157612310612257565b5b600061231f88828901612282565b955050602061233088828901612282565b945050604061234188828901612282565b935050606061235288828901612282565b9250506080612363888289016122e0565b9150509295509295909350565b61237981612261565b82525050565b60006020820190506123946000830184612370565b92915050565b6000819050919050565b60006123bf6123ba6123b584612297565b61239a565b612297565b9050919050565b60006123d1826123a4565b9050919050565b60006123e3826123c6565b9050919050565b6123f3816123d8565b82525050565b600060208201905061240e60008301846123ea565b92915050565b60006020828403121561242a57612429612257565b5b6000612438848285016122e0565b91505092915050565b6000806040838503121561245857612457612257565b5b600061246685828601612282565b9250506020612477858286016122e0565b9150509250929050565b61248a816122b7565b82525050565b60006020820190506124a56000830184612481565b92915050565b600080600080600060a086880312156124c7576124c6612257565b5b60006124d5888289016122e0565b95505060206124e688828901612282565b94505060406124f7888289016122e0565b9350506060612508888289016122e0565b925050608061251988828901612282565b9150509295509295909350565b6000612531826123c6565b9050919050565b61254181612526565b82525050565b600060208201905061255c6000830184612538565b92915050565b60008060008060008060c0878903121561257f5761257e612257565b5b600061258d89828a016122e0565b965050602061259e89828a01612282565b95505060406125af89828a016122e0565b94505060606125c089828a01612282565b93505060806125d189828a01612282565b92505060a06125e289828a016122e0565b9150509295509295509295565b60008060006060848603121561260857612607612257565b5b6000612616868287016122e0565b935050602061262786828701612282565b925050604061263886828701612282565b9150509250925092565b6000806040838503121561265957612658612257565b5b6000612667858286016122e0565b925050602061267885828601612282565b9150509250929050565b600061268d826123c6565b9050919050565b61269d81612682565b82525050565b60006020820190506126b86000830184612694565b92915050565b6000806000606084860312156126d7576126d6612257565b5b60006126e5868287016122e0565b93505060206126f686828701612282565b9250506040612707868287016122e0565b9150509250925092565b600080fd5b600080fd5b600080fd5b60008083601f84011261273657612735612711565b5b8235905067ffffffffffffffff81111561275357612752612716565b5b60208301915083600182028301111561276f5761276e61271b565b5b9250929050565b600080600080606085870312156127905761278f612257565b5b600061279e87828801612282565b94505060206127af87828801612282565b935050604085013567ffffffffffffffff8111156127d0576127cf61225c565b5b6127dc87828801612720565b925092505092959194509250565b6000819050919050565b6127fd816127ea565b811461280857600080fd5b50565b60008135905061281a816127f4565b92915050565b6000806000806060858703121561283a57612839612257565b5b60006128488782880161280b565b94505060206128598782880161280b565b935050604085013567ffffffffffffffff81111561287a5761287961225c565b5b61288687828801612720565b925092505092959194509250565b600060c0820190506128a96000830189612370565b6128b66020830188612370565b6128c36040830187612370565b6128d06060830186612370565b6128dd6080830185612370565b6128ea60a0830184612370565b979650505050505050565b7f4e487b7100000000000000000000000000000000000000000000000000000000600052601260045260246000fd5b7f4e487b7100000000000000000000000000000000000000000000000000000000600052601160045260246000fd5b600061295e82612261565b915061296983612261565b925082612979576129786128f5565b5b828204905092915050565b600061298f82612261565b915061299a83612261565b9250817fffffffffffffffffffffffffffffffffffffffffffffffffffffffffffffffff04831182151516156129d3576129d2612924565b5b828202905092915050565b60006129e982612261565b91506129f483612261565b925082821015612a0757612a06612924565b5b828203905092915050565b600081519050612a218161226b565b92915050565b600060208284031215612a3d57612a3c612257565b5b6000612a4b84828501612a12565b91505092915050565b7f496e73756666696369656e742057455448390000000000000000000000000000600082015250565b6000612a8a6012836121d0565b9150612a9582612a54565b602082019050919050565b60006020820190508181036000830152612ab981612a7d565b9050919050565b6000819050919050565b6000612ae5612ae0612adb84612ac0565b61239a565b612261565b9050919050565b612af581612aca565b82525050565b6000608082019050612b106000830187612481565b612b1d6020830186612370565b612b2a6040830185612aec565b612b376060830184612481565b95945050505050565b60008060008060008060c08789031215612b5d57612b5c612257565b5b6000612b6b89828a01612a12565b9650506020612b7c89828a01612a12565b9550506040612b8d89828a01612a12565b9450506060612b9e89828a01612a12565b9350506080612baf89828a01612a12565b92505060a0612bc089828a01612a12565b9150509295509295509295565b6000606082019050612be26000830186612481565b612bef6020830185612481565b612bfc6040830184612370565b949350505050565b60008115159050919050565b612c1981612c04565b8114612c2457600080fd5b50565b600081519050612c3681612c10565b92915050565b600060208284031215612c5257612c51612257565b5b6000612c6084828501612c27565b91505092915050565b6000606082019050612c7e6000830186612481565b612c8b6020830185612370565b612c986040830184612481565b949350505050565b6000612cab82612261565b9150612cb683612261565b9250827fffffffffffffffffffffffffffffffffffffffffffffffffffffffffffffffff03821115612ceb57612cea612924565b5b828201905092915050565b6000819050919050565b600061ffff82169050919050565b6000612d29612d24612d1f84612cf6565b61239a565b612d00565b9050919050565b612d3981612d0e565b82525050565b6000608082019050612d546000830187612481565b612d616020830186612370565b612d6e6040830185612481565b612d7b6060830184612d30565b95945050505050565b600060a082019050612d996000830188612481565b612da66020830187612370565b612db36040830186612aec565b612dc06060830185612d30565b612dcd6080830184612481565b9695505050505050565b6000604082019050612dec6000830185612481565b612df96020830184612370565b9392505050565b7f496e73756666696369656e7420746f6b656e0000000000000000000000000000600082015250565b6000612e366012836121d0565b9150612e4182612e00565b602082019050919050565b60006020820190508181036000830152612e6581612e29565b9050919050565b600080fd5b6000601f19601f8301169050919050565b7f4e487b7100000000000000000000000000000000000000000000000000000000600052604160045260246000fd5b612eba82612e71565b810181811067ffffffffffffffff82111715612ed957612ed8612e82565b5b80604052505050565b6000612eec61224d565b9050612ef88282612eb1565b919050565b600062ffffff82169050919050565b612f1581612efd565b8114612f2057600080fd5b50565b600081359050612f3281612f0c565b92915050565b600060608284031215612f4e57612f4d612e6c565b5b612f586060612ee2565b90506000612f68848285016122e0565b6000830152506020612f7c848285016122e0565b6020830152506040612f9084828501612f23565b60408301525092915050565b600081359050612fab81612c10565b92915050565b60006101808284031215612fc857612fc7612e6c565b5b612fd3610140612ee2565b90506000612fe384828501612282565b6000830152506020612ff784828501612282565b602083015250604061300b848285016122e0565b604083015250606061301f84828501612f38565b60608301525060c061303384828501612f9c565b60808301525060e061304784828501612f9c565b60a08301525061010061305c84828501612282565b60c08301525061012061307184828501612282565b60e08301525061014061308684828501612282565b6101008301525061016061309c84828501612282565b6101208301525092915050565b600061018082840312156130c0576130bf612257565b5b60006130ce84828501612fb1565b91505092915050565b60006130e2826122b7565b9050919050565b6130f2816130d7565b81146130fd57600080fd5b50565b60008151905061310f816130e9565b92915050565b60006020828403121561312b5761312a612257565b5b600061313984828501613100565b91505092915050565b600081519050919050565b600081905092915050565b60005b8381101561317657808201518184015260208101905061315b565b83811115613185576000848401525b50505050565b600061319682613142565b6131a0818561314d565b93506131b0818560208601613158565b80840191505092915050565b60006131c8828461318b565b915081905092915050565b7f5354450000000000000000000000000000000000000000000000000000000000600082015250565b60006132096003836121d0565b9150613214826131d3565b602082019050919050565b60006020820190508181036000830152613238816131fc565b9050919050565b600081519050919050565b60006132558261323f565b61325f81856121d0565b935061326f818560208601613158565b61327881612e71565b840191505092915050565b6000602082019050818103600083015261329d818461324a565b905092915050565b7f5354000000000000000000000000000000000000000000000000000000000000600082015250565b60006132db6002836121d0565b91506132e6826132a5565b602082019050919050565b6000602082019050818103600083015261330a816132ce565b9050919050565b61331a816127ea565b82525050565b60006020820190506133356000830184613311565b92915050565b61334481612efd565b82525050565b600060608201905061335f6000830186612481565b61336c6020830185612481565b613379604083018461333b565b949350505050565b600081905092915050565b7fff00000000000000000000000000000000000000000000000000000000000000600082015250565b60006133c2600183613381565b91506133cd8261338c565b600182019050919050565b60008160601b9050919050565b60006133f0826133d8565b9050919050565b6000613402826133e5565b9050919050565b61341a613415826122b7565b6133f7565b82525050565b6000819050919050565b6000819050919050565b61344561344082613420565b61342a565b82525050565b6000613456826133b5565b91506134628286613409565b6014820191506134728285613434565b6020820191506134828284613434565b602082019150819050949350505050565b7f5354460000000000000000000000000000000000000000000000000000000000600082015250565b60006134c96003836121d0565b91506134d482613493565b602082019050919050565b600060208201905081810360008301526134f8816134bc565b905091905056fea26469706673582212208f1151ff6c9424863ac1fc2f342ee96f11ad51ab3868b2f002dcd69fbc22fe0c64736f6c634300080a0033",
  "linkReferences": {},
  "deployedLinkReferences": {}
}