{
  "_format": "hh-sol-artifact-1",
  "contractName": "BigShot",
  "sourceName": "contracts/BigShot.sol",
  "abi": [
    {
      "inputs": [
        {
          "internalType": "address",
          "name": "_factory",
          "type": "address"
        },
        {
          "internalType": "address",
          "name": "_WETH9",
          "type": "address"
        },
        {
          "internalType": "address",
          "name": "_aavePoolAddress",
          "type": "address"
        },
        {
          "internalType": "address",
          "name": "_aaveOracleAddress",
          "type": "address"
        },
        {
          "internalType": "address",
          "name": "_aaveAusdcTokenAddress",
          "type": "address"
        }
      ],
      "stateMutability": "nonpayable",
      "type": "constructor"
    },
    {
      "anonymous": false,
      "inputs": [
        {
          "indexed": true,
          "internalType": "address",
          "name": "previousOwner",
          "type": "address"
        },
        {
          "indexed": true,
          "internalType": "address",
          "name": "newOwner",
          "type": "address"
        }
      ],
      "name": "OwnershipTransferred",
      "type": "event"
    },
    {
      "inputs": [],
      "name": "WETH9",
      "outputs": [
        {
          "internalType": "address",
          "name": "",
          "type": "address"
        }
      ],
      "stateMutability": "view",
      "type": "function"
    },
    {
      "inputs": [
        {
          "internalType": "address",
          "name": "tokenBorrowed",
          "type": "address"
        },
        {
          "internalType": "uint256",
          "name": "units",
          "type": "uint256"
        },
        {
          "internalType": "address",
          "name": "collateralAddress",
          "type": "address"
        },
        {
          "internalType": "address",
          "name": "user",
          "type": "address"
        },
        {
          "internalType": "uint256",
          "name": "targetHealth",
          "type": "uint256"
        }
      ],
      "name": "_repayAndWithdrawCollateral",
      "outputs": [],
      "stateMutability": "nonpayable",
      "type": "function"
    },
    {
      "inputs": [
        {
          "internalType": "address",
          "name": "tokenToBorrow",
          "type": "address"
        },
        {
          "internalType": "uint256",
          "name": "units",
          "type": "uint256"
        },
        {
          "internalType": "address",
          "name": "collateralAddress",
          "type": "address"
        },
        {
          "internalType": "uint256",
          "name": "flashCollateral",
          "type": "uint256"
        },
        {
          "internalType": "uint256",
          "name": "userCollateral",
          "type": "uint256"
        },
        {
          "internalType": "address",
          "name": "user",
          "type": "address"
        }
      ],
      "name": "_suppllyCollateralAndBorrow",
      "outputs": [],
      "stateMutability": "nonpayable",
      "type": "function"
    },
    {
      "inputs": [],
      "name": "aUsdc",
      "outputs": [
        {
          "internalType": "contract IERC20",
          "name": "",
          "type": "address"
        }
      ],
      "stateMutability": "view",
      "type": "function"
    },
    {
      "inputs": [
        {
          "internalType": "address",
          "name": "tokenAddress",
          "type": "address"
        },
        {
          "internalType": "uint256",
          "name": "amount",
          "type": "uint256"
        }
      ],
      "name": "approveToken",
      "outputs": [],
      "stateMutability": "nonpayable",
      "type": "function"
    },
    {
      "inputs": [
        {
          "internalType": "uint256",
          "name": "healthFactor",
          "type": "uint256"
        },
        {
          "internalType": "uint256",
          "name": "totalCollateralBase",
          "type": "uint256"
        },
        {
          "internalType": "uint256",
          "name": "totalBorrowBase",
          "type": "uint256"
        },
        {
          "internalType": "uint256",
          "name": "liquidationThreshold",
          "type": "uint256"
        },
        {
          "internalType": "address",
          "name": "collateralAddress",
          "type": "address"
        }
      ],
      "name": "calculateWithdraw",
      "outputs": [
        {
          "internalType": "uint256",
          "name": "",
          "type": "uint256"
        }
      ],
      "stateMutability": "view",
      "type": "function"
    },
    {
      "inputs": [
        {
          "internalType": "address",
          "name": "tokenAddress",
          "type": "address"
        },
        {
          "internalType": "uint256",
          "name": "units",
          "type": "uint256"
        },
        {
          "internalType": "address",
          "name": "collateralAddress",
          "type": "address"
        },
        {
          "internalType": "uint24",
          "name": "uniswapPoolFee",
          "type": "uint24"
        },
        {
          "internalType": "uint256",
          "name": "targetHealthFactor",
          "type": "uint256"
        }
      ],
      "name": "closeShortTokenPosition",
      "outputs": [],
      "stateMutability": "nonpayable",
      "type": "function"
    },
    {
      "inputs": [
        {
          "internalType": "address",
          "name": "tokenAddress",
          "type": "address"
        },
        {
          "internalType": "uint256",
          "name": "units",
          "type": "uint256"
        },
        {
          "internalType": "uint256",
          "name": "amount",
          "type": "uint256"
        }
      ],
      "name": "depositToken",
      "outputs": [],
      "stateMutability": "nonpayable",
      "type": "function"
    },
    {
      "inputs": [],
      "name": "factory",
      "outputs": [
        {
          "internalType": "address",
          "name": "",
          "type": "address"
        }
      ],
      "stateMutability": "view",
      "type": "function"
    },
    {
      "inputs": [],
      "name": "getPoolAddress",
      "outputs": [],
      "stateMutability": "view",
      "type": "function"
    },
    {
      "inputs": [
        {
          "internalType": "address",
          "name": "assest",
          "type": "address"
        }
      ],
      "name": "getPrice",
      "outputs": [
        {
          "internalType": "uint256",
          "name": "",
          "type": "uint256"
        }
      ],
      "stateMutability": "view",
      "type": "function"
    },
    {
      "inputs": [
        {
          "internalType": "address",
          "name": "user",
          "type": "address"
        }
      ],
      "name": "getUserData",
      "outputs": [
        {
          "internalType": "uint256",
          "name": "totalCollateralBase",
          "type": "uint256"
        },
        {
          "internalType": "uint256",
          "name": "totalDebtBase",
          "type": "uint256"
        },
        {
          "internalType": "uint256",
          "name": "availableBorrowsBase",
          "type": "uint256"
        },
        {
          "internalType": "uint256",
          "name": "currentLiquidationThreshold",
          "type": "uint256"
        },
        {
          "internalType": "uint256",
          "name": "ltv",
          "type": "uint256"
        },
        {
          "internalType": "uint256",
          "name": "healthFactor",
          "type": "uint256"
        }
      ],
      "stateMutability": "view",
      "type": "function"
    },
    {
      "inputs": [
        {
          "internalType": "address",
          "name": "tokenAddress",
          "type": "address"
        },
        {
          "internalType": "address",
          "name": "collateralAddress",
          "type": "address"
        },
        {
          "internalType": "uint24",
          "name": "uniswapPoolFee",
          "type": "uint24"
        },
        {
          "internalType": "uint256",
          "name": "flashCollateral",
          "type": "uint256"
        },
        {
          "internalType": "uint256",
          "name": "userCollateral",
          "type": "uint256"
        }
      ],
      "name": "openShortTokenPosition",
      "outputs": [],
      "stateMutability": "nonpayable",
      "type": "function"
    },
    {
      "inputs": [],
      "name": "oracleAddress",
      "outputs": [
        {
          "internalType": "contract IPriceOracleGetter",
          "name": "",
          "type": "address"
        }
      ],
      "stateMutability": "view",
      "type": "function"
    },
    {
      "inputs": [],
      "name": "owner",
      "outputs": [
        {
          "internalType": "address",
          "name": "",
          "type": "address"
        }
      ],
      "stateMutability": "view",
      "type": "function"
    },
    {
      "inputs": [],
      "name": "poolAddress",
      "outputs": [
        {
          "internalType": "contract IPool",
          "name": "",
          "type": "address"
        }
      ],
      "stateMutability": "view",
      "type": "function"
    },
    {
      "inputs": [],
      "name": "refundETH",
      "outputs": [],
      "stateMutability": "payable",
      "type": "function"
    },
    {
      "inputs": [],
      "name": "renounceOwnership",
      "outputs": [],
      "stateMutability": "nonpayable",
      "type": "function"
    },
    {
      "inputs": [
        {
          "internalType": "address",
          "name": "token",
          "type": "address"
        },
        {
          "internalType": "uint256",
          "name": "amountMinimum",
          "type": "uint256"
        },
        {
          "internalType": "address",
          "name": "recipient",
          "type": "address"
        }
      ],
      "name": "sweepToken",
      "outputs": [],
      "stateMutability": "payable",
      "type": "function"
    },
    {
      "inputs": [
        {
          "internalType": "address",
          "name": "newOwner",
          "type": "address"
        }
      ],
      "name": "transferOwnership",
      "outputs": [],
      "stateMutability": "nonpayable",
      "type": "function"
    },
    {
      "inputs": [
        {
          "internalType": "uint256",
          "name": "fee0",
          "type": "uint256"
        },
        {
          "internalType": "uint256",
          "name": "fee1",
          "type": "uint256"
        },
        {
          "internalType": "bytes",
          "name": "data",
          "type": "bytes"
        }
      ],
      "name": "uniswapV3FlashCallback",
      "outputs": [],
      "stateMutability": "nonpayable",
      "type": "function"
    },
    {
      "inputs": [
        {
          "internalType": "int256",
          "name": "amount0Delta",
          "type": "int256"
        },
        {
          "internalType": "int256",
          "name": "amount1Delta",
          "type": "int256"
        },
        {
          "internalType": "bytes",
          "name": "data",
          "type": "bytes"
        }
      ],
      "name": "uniswapV3SwapCallback",
      "outputs": [],
      "stateMutability": "nonpayable",
      "type": "function"
    },
    {
      "inputs": [
        {
          "internalType": "uint256",
          "name": "amountMinimum",
          "type": "uint256"
        },
        {
          "internalType": "address",
          "name": "recipient",
          "type": "address"
        }
      ],
      "name": "unwrapWETH9",
      "outputs": [],
      "stateMutability": "payable",
      "type": "function"
    },
    {
      "inputs": [
        {
          "internalType": "address",
          "name": "tokenAddress",
          "type": "address"
        },
        {
          "internalType": "uint256",
          "name": "totalAmount",
          "type": "uint256"
        }
      ],
      "name": "withdrawToken",
      "outputs": [],
      "stateMutability": "nonpayable",
      "type": "function"
    },
    {
      "stateMutability": "payable",
      "type": "receive"
    }
  ],
  "bytecode": "0x60c06040523480156200001157600080fd5b5060405162004af238038062004af28339818101604052810190620000379190620002d8565b84848484848484848484826000806101000a81548173ffffffffffffffffffffffffffffffffffffffff021916908373ffffffffffffffffffffffffffffffffffffffff16021790555081600160006101000a81548173ffffffffffffffffffffffffffffffffffffffff021916908373ffffffffffffffffffffffffffffffffffffffff16021790555080600260006101000a81548173ffffffffffffffffffffffffffffffffffffffff021916908373ffffffffffffffffffffffffffffffffffffffff1602179055505050508173ffffffffffffffffffffffffffffffffffffffff1660808173ffffffffffffffffffffffffffffffffffffffff16815250508073ffffffffffffffffffffffffffffffffffffffff1660a08173ffffffffffffffffffffffffffffffffffffffff1681525050505050505050506200019562000189620001a060201b60201c565b620001a860201b60201c565b505050505062000360565b600033905090565b6000600360009054906101000a900473ffffffffffffffffffffffffffffffffffffffff16905081600360006101000a81548173ffffffffffffffffffffffffffffffffffffffff021916908373ffffffffffffffffffffffffffffffffffffffff1602179055508173ffffffffffffffffffffffffffffffffffffffff168173ffffffffffffffffffffffffffffffffffffffff167f8be0079c531659141344cd1fd0a4f28419497f9722a3daafe3b4186f6b6457e060405160405180910390a35050565b600080fd5b600073ffffffffffffffffffffffffffffffffffffffff82169050919050565b6000620002a08262000273565b9050919050565b620002b28162000293565b8114620002be57600080fd5b50565b600081519050620002d281620002a7565b92915050565b600080600080600060a08688031215620002f757620002f66200026e565b5b60006200030788828901620002c1565b95505060206200031a88828901620002c1565b94505060406200032d88828901620002c1565b93505060606200034088828901620002c1565b92505060806200035388828901620002c1565b9150509295509295909350565b60805160a051614726620003cc60003960008181610156015281816108560152818161093e015281816109d90152818161288e015281816128ee015261296f0152600081816114640152818161157a015281816117b101528181611f02015261251301526147266000f3fe60806040526004361061014f5760003560e01c80638da5cb5b116100b6578063df2ab5bb1161006f578063df2ab5bb146104c1578063e9cbafb0146104dd578063f2fde38b14610506578063f586c6d91461052f578063fa461e3314610546578063ffc9896b1461056f576101e4565b80638da5cb5b146103c557806399c6d2de146103f05780639e281a9814610419578063a29ad82e14610442578063a89ae4ba1461046b578063c45a015514610496576101e4565b806349404b7c1161010857806349404b7c146102ea5780634aa4a4fc14610306578063620a22621461033157806365196e1e1461035a5780637058611414610385578063715018a6146103ae576101e4565b8063022fc88b146101e957806305116f0b1461021257806312210e8a1461024f5780631755ff21146102595780632534efb91461028457806341976e09146102ad576101e4565b366101e4577f000000000000000000000000000000000000000000000000000000000000000073ffffffffffffffffffffffffffffffffffffffff163373ffffffffffffffffffffffffffffffffffffffff16146101e2576040517f08c379a00000000000000000000000000000000000000000000000000000000081526004016101d990612e16565b60405180910390fd5b005b600080fd5b3480156101f557600080fd5b50610210600480360381019061020b9190612ede565b6105b1565b005b34801561021e57600080fd5b5061023960048036038101906102349190612f1e565b61065c565b6040516102469190612fa8565b60405180910390f35b61025761075a565b005b34801561026557600080fd5b5061026e610770565b60405161027b9190613022565b60405180910390f35b34801561029057600080fd5b506102ab60048036038101906102a69190613078565b610794565b005b3480156102b957600080fd5b506102d460048036038101906102cf91906130f3565b6107a8565b6040516102e19190612fa8565b60405180910390f35b61030460048036038101906102ff9190613120565b610852565b005b34801561031257600080fd5b5061031b6109d7565b604051610328919061316f565b60405180910390f35b34801561033d57600080fd5b506103586004803603810190610353919061318a565b6109fb565b005b34801561036657600080fd5b5061036f610fa7565b60405161037c9190613226565b60405180910390f35b34801561039157600080fd5b506103ac60048036038101906103a79190613241565b610fcd565b005b3480156103ba57600080fd5b506103c361110d565b005b3480156103d157600080fd5b506103da611121565b6040516103e7919061316f565b60405180910390f35b3480156103fc57600080fd5b50610417600480360381019061041291906132ce565b61114b565b005b34801561042557600080fd5b50610440600480360381019061043b9190612ede565b611302565b005b34801561044e57600080fd5b5061046960048036038101906104649190613321565b6113a7565b005b34801561047757600080fd5b5061048061143c565b60405161048d91906133bd565b60405180910390f35b3480156104a257600080fd5b506104ab611462565b6040516104b8919061316f565b60405180910390f35b6104db60048036038101906104d691906133d8565b611486565b005b3480156104e957600080fd5b5061050460048036038101906104ff9190613490565b611562565b005b34801561051257600080fd5b5061052d600480360381019061052891906130f3565b611683565b005b34801561053b57600080fd5b50610544611707565b005b34801561055257600080fd5b5061056d6004803603810190610568919061353a565b611799565b005b34801561057b57600080fd5b50610596600480360381019061059191906130f3565b611ade565b6040516105a8969594939291906135ae565b60405180910390f35b6105b9611bb7565b8173ffffffffffffffffffffffffffffffffffffffff1663095ea7b360008054906101000a900473ffffffffffffffffffffffffffffffffffffffff16836040518363ffffffff1660e01b815260040161061492919061360f565b6020604051808303816000875af1158015610633573d6000803e3d6000fd5b505050506040513d601f19601f820116820180604052508101906106579190613670565b505050565b60008060648461066c91906136fb565b9050600081868961067d919061372c565b61068791906136fb565b9050600081886106979190613786565b90506000600160009054906101000a900473ffffffffffffffffffffffffffffffffffffffff1673ffffffffffffffffffffffffffffffffffffffff1663b3596f07876040518263ffffffff1660e01b81526004016106f6919061316f565b602060405180830381865afa158015610713573d6000803e3d6000fd5b505050506040513d601f19601f8201168201806040525081019061073791906137cf565b90506000818361074791906136fb565b9050809550505050505095945050505050565b600047111561076e5761076d3347611c35565b5b565b60008054906101000a900473ffffffffffffffffffffffffffffffffffffffff1681565b6107a18585858585611d35565b5050505050565b600080600160009054906101000a900473ffffffffffffffffffffffffffffffffffffffff1673ffffffffffffffffffffffffffffffffffffffff1663b3596f07846040518263ffffffff1660e01b8152600401610806919061316f565b602060405180830381865afa158015610823573d6000803e3d6000fd5b505050506040513d601f19601f8201168201806040525081019061084791906137cf565b905080915050919050565b60007f000000000000000000000000000000000000000000000000000000000000000073ffffffffffffffffffffffffffffffffffffffff166370a08231306040518263ffffffff1660e01b81526004016108ad919061316f565b602060405180830381865afa1580156108ca573d6000803e3d6000fd5b505050506040513d601f19601f820116820180604052508101906108ee91906137cf565b905082811015610933576040517f08c379a000000000000000000000000000000000000000000000000000000000815260040161092a90613848565b60405180910390fd5b60008111156109d2577f000000000000000000000000000000000000000000000000000000000000000073ffffffffffffffffffffffffffffffffffffffff16632e1a7d4d826040518263ffffffff1660e01b81526004016109959190612fa8565b600060405180830381600087803b1580156109af57600080fd5b505af11580156109c3573d6000803e3d6000fd5b505050506109d18282611c35565b5b505050565b7f000000000000000000000000000000000000000000000000000000000000000081565b610a396040518060400160405280600581526020017f557365723a0000000000000000000000000000000000000000000000000000008152506120b5565b610a428261214e565b60008054906101000a900473ffffffffffffffffffffffffffffffffffffffff1673ffffffffffffffffffffffffffffffffffffffff1663573ade8186866002866040518563ffffffff1660e01b8152600401610aa294939291906138a3565b6020604051808303816000875af1158015610ac1573d6000803e3d6000fd5b505050506040513d601f19601f82011682018060405250810190610ae591906137cf565b5060008060008060009054906101000a900473ffffffffffffffffffffffffffffffffffffffff1673ffffffffffffffffffffffffffffffffffffffff1663bf92857c866040518263ffffffff1660e01b8152600401610b45919061316f565b60c060405180830381865afa158015610b62573d6000803e3d6000fd5b505050506040513d601f19601f82011682018060405250810190610b8691906138e8565b505093505092509250610bcd6040518060400160405280601081526020017f546f74616c204465627420426173653a000000000000000000000000000000008152506120b5565b610bd6826121e7565b60008211610e2957600260009054906101000a900473ffffffffffffffffffffffffffffffffffffffff1673ffffffffffffffffffffffffffffffffffffffff166323b872dd8630600260009054906101000a900473ffffffffffffffffffffffffffffffffffffffff1673ffffffffffffffffffffffffffffffffffffffff166370a082318a6040518263ffffffff1660e01b8152600401610c79919061316f565b602060405180830381865afa158015610c96573d6000803e3d6000fd5b505050506040513d601f19601f82011682018060405250810190610cba91906137cf565b6040518463ffffffff1660e01b8152600401610cd893929190613975565b6020604051808303816000875af1158015610cf7573d6000803e3d6000fd5b505050506040513d601f19601f82011682018060405250810190610d1b9190613670565b50610d5a6040518060400160405280601681526020017f546f74616c20436f6c6c61746572616c20426173653a000000000000000000008152506120b5565b610d63836121e7565b60008054906101000a900473ffffffffffffffffffffffffffffffffffffffff1673ffffffffffffffffffffffffffffffffffffffff166369328dec877fffffffffffffffffffffffffffffffffffffffffffffffffffffffffffffffff886040518463ffffffff1660e01b8152600401610de0939291906139ac565b6020604051808303816000875af1158015610dff573d6000803e3d6000fd5b505050506040513d601f19601f82011682018060405250810190610e2391906137cf565b50610f9d565b6000610e38858585858b61065c565b905060008054906101000a900473ffffffffffffffffffffffffffffffffffffffff1673ffffffffffffffffffffffffffffffffffffffff166369328dec8883896040518463ffffffff1660e01b8152600401610e97939291906139ac565b6020604051808303816000875af1158015610eb6573d6000803e3d6000fd5b505050506040513d601f19601f82011682018060405250810190610eda91906137cf565b50610f196040518060400160405280601d81526020017f557365722042616c616e63652061667465722077697468647261773a200000008152506120b5565b610f9b8773ffffffffffffffffffffffffffffffffffffffff166370a08231886040518263ffffffff1660e01b8152600401610f55919061316f565b602060405180830381865afa158015610f72573d6000803e3d6000fd5b505050506040513d601f19601f82011682018060405250810190610f9691906137cf565b6121e7565b505b5050505050505050565b600260009054906101000a900473ffffffffffffffffffffffffffffffffffffffff1681565b60008284610fdb91906139e3565b905060008054906101000a900473ffffffffffffffffffffffffffffffffffffffff1673ffffffffffffffffffffffffffffffffffffffff1663617ba03786838560006040518563ffffffff1660e01b815260040161103d9493929190613a82565b600060405180830381600087803b15801561105757600080fd5b505af115801561106b573d6000803e3d6000fd5b5050505060008054906101000a900473ffffffffffffffffffffffffffffffffffffffff1673ffffffffffffffffffffffffffffffffffffffff1663a415bcad888860026000876040518663ffffffff1660e01b81526004016110d2959493929190613ac7565b600060405180830381600087803b1580156110ec57600080fd5b505af1158015611100573d6000803e3d6000fd5b5050505050505050505050565b611115611bb7565b61111f6000612280565b565b6000600360009054906101000a900473ffffffffffffffffffffffffffffffffffffffff16905090565b8273ffffffffffffffffffffffffffffffffffffffff166323b872dd3330846040518463ffffffff1660e01b815260040161118893929190613975565b6020604051808303816000875af11580156111a7573d6000803e3d6000fd5b505050506040513d601f19601f820116820180604052508101906111cb9190613670565b508273ffffffffffffffffffffffffffffffffffffffff1663095ea7b360008054906101000a900473ffffffffffffffffffffffffffffffffffffffff16836040518363ffffffff1660e01b815260040161122792919061360f565b6020604051808303816000875af1158015611246573d6000803e3d6000fd5b505050506040513d601f19601f8201168201806040525081019061126a9190613670565b5060008054906101000a900473ffffffffffffffffffffffffffffffffffffffff1673ffffffffffffffffffffffffffffffffffffffff1663617ba03784843060006040518563ffffffff1660e01b81526004016112cb9493929190613a82565b600060405180830381600087803b1580156112e557600080fd5b505af11580156112f9573d6000803e3d6000fd5b50505050505050565b60008054906101000a900473ffffffffffffffffffffffffffffffffffffffff1673ffffffffffffffffffffffffffffffffffffffff166369328dec8383336040518463ffffffff1660e01b815260040161135f939291906139ac565b6020604051808303816000875af115801561137e573d6000803e3d6000fd5b505050506040513d601f19601f820116820180604052508101906113a291906137cf565b505050565b8373ffffffffffffffffffffffffffffffffffffffff166323b872dd3330846040518463ffffffff1660e01b81526004016113e493929190613975565b6020604051808303816000875af1158015611403573d6000803e3d6000fd5b505050506040513d601f19601f820116820180604052508101906114279190613670565b506114358585858585612346565b5050505050565b600160009054906101000a900473ffffffffffffffffffffffffffffffffffffffff1681565b7f000000000000000000000000000000000000000000000000000000000000000081565b60008373ffffffffffffffffffffffffffffffffffffffff166370a08231306040518263ffffffff1660e01b81526004016114c1919061316f565b602060405180830381865afa1580156114de573d6000803e3d6000fd5b505050506040513d601f19601f8201168201806040525081019061150291906137cf565b905082811015611547576040517f08c379a000000000000000000000000000000000000000000000000000000000815260040161153e90613b66565b60405180910390fd5b600081111561155c5761155b8483836126c8565b5b50505050565b600082828101906115739190613d88565b90506115a37f0000000000000000000000000000000000000000000000000000000000000000826060015161281d565b5060006115b4826000015187612869565b905060006115c6836020015187612869565b905060008360600151600001519050600084606001516020015190506000808660a00151156115fa57839050829150611601565b8290508391505b86608001511561162f5761162a828860c00151838a60e001518b61010001518c60400151610fcd565b61164a565b611649828860c00151838a604001518b61012001516109fb565b5b60008611156116605761165f8430338961288c565b5b6000851115611676576116758330338861288c565b5b5050505050505050505050565b61168b611bb7565b600073ffffffffffffffffffffffffffffffffffffffff168173ffffffffffffffffffffffffffffffffffffffff1614156116fb576040517f08c379a00000000000000000000000000000000000000000000000000000000081526004016116f290613e28565b60405180910390fd5b61170481612280565b50565b60008054906101000a900473ffffffffffffffffffffffffffffffffffffffff1673ffffffffffffffffffffffffffffffffffffffff16630542975c6040518163ffffffff1660e01b8152600401602060405180830381865afa158015611772573d6000803e3d6000fd5b505050506040513d601f19601f820116820180604052508101906117969190613e86565b50565b600082828101906117aa9190613d88565b90506117da7f0000000000000000000000000000000000000000000000000000000000000000826060015161281d565b506000806000806000808660a001511561189d5761182c6040518060400160405280601981526020017f436f6c6c61746572616c20616d6f756e742064656c74613a20000000000000008152506120b5565b6118358b612a69565b6118736040518060400160405280601481526020017f546f6b656e20616d6f756e742064656c74613a200000000000000000000000008152506120b5565b61187c8a612a69565b866060015160200151935086606001516000015192508991508a9050611948565b6118db6040518060400160405280601981526020017f436f6c6c61746572616c20616d6f756e742064656c74613a20000000000000008152506120b5565b6118e48a612a69565b6119226040518060400160405280601481526020017f546f6b656e20616d6f756e742064656c74613a200000000000000000000000008152506120b5565b61192b8b612a69565b866060015160000151935086606001516020015192508a91508990505b866080015115611a12578395508194506119966040518060400160405280600c81526020017f50617920416d6f756e743a2000000000000000000000000000000000000000008152506120b5565b61199f856121e7565b6119dd6040518060400160405280600b81526020017f50617920546f6b656e3a200000000000000000000000000000000000000000008152506120b5565b6119e68661214e565b611a018486858a60e001518b61010001518c60400151610fcd565b611a0d8630338861288c565b611ad1565b829550809450611a566040518060400160405280600c81526020017f50617920416d6f756e743a2000000000000000000000000000000000000000008152506120b5565b611a5f856121e7565b611a9d6040518060400160405280600b81526020017f50617920546f6b656e3a200000000000000000000000000000000000000000008152506120b5565b611aa68661214e565b611ac0848860c00151858a604001518b61012001516109fb565b611ad0868860400151338861288c565b5b5050505050505050505050565b60008060008060008060008060008060008060008054906101000a900473ffffffffffffffffffffffffffffffffffffffff1673ffffffffffffffffffffffffffffffffffffffff1663bf92857c8e6040518263ffffffff1660e01b8152600401611b49919061316f565b60c060405180830381865afa158015611b66573d6000803e3d6000fd5b505050506040513d601f19601f82011682018060405250810190611b8a91906138e8565b9550955095509550955095508585858585859b509b509b509b509b509b5050505050505091939550919395565b611bbf612b02565b73ffffffffffffffffffffffffffffffffffffffff16611bdd611121565b73ffffffffffffffffffffffffffffffffffffffff1614611c33576040517f08c379a0000000000000000000000000000000000000000000000000000000008152600401611c2a90613eff565b60405180910390fd5b565b60008273ffffffffffffffffffffffffffffffffffffffff1682600067ffffffffffffffff811115611c6a57611c69613b9c565b5b6040519080825280601f01601f191660200182016040528015611c9c5781602001600182028036833780820191505090505b50604051611caa9190613f99565b60006040518083038185875af1925050503d8060008114611ce7576040519150601f19603f3d011682016040523d82523d6000602084013e611cec565b606091505b5050905080611d30576040517f08c379a0000000000000000000000000000000000000000000000000000000008152600401611d2790613ffc565b60405180910390fd5b505050565b611d3d612d5c565b600081604001818152505060008160600181815250508373ffffffffffffffffffffffffffffffffffffffff168673ffffffffffffffffffffffffffffffffffffffff161015611e175785816000019073ffffffffffffffffffffffffffffffffffffffff16908173ffffffffffffffffffffffffffffffffffffffff168152505083816020019073ffffffffffffffffffffffffffffffffffffffff16908173ffffffffffffffffffffffffffffffffffffffff1681525050848160400181815250506000816080019015159081151581525050611ea3565b83816000019073ffffffffffffffffffffffffffffffffffffffff16908173ffffffffffffffffffffffffffffffffffffffff168152505085816020019073ffffffffffffffffffffffffffffffffffffffff16908173ffffffffffffffffffffffffffffffffffffffff16815250508481606001818152505060018160800190151590811515815250505b60006040518060600160405280836000015173ffffffffffffffffffffffffffffffffffffffff168152602001836020015173ffffffffffffffffffffffffffffffffffffffff1681526020018562ffffff1681525090506000611f277f000000000000000000000000000000000000000000000000000000000000000083612b0a565b90508073ffffffffffffffffffffffffffffffffffffffff1663128acb083085608001518a7fffffffffffffffffffffffffffffffffffffffffffffffffffffffffffffffff611f77919061401c565b8760800151611fa657600173fffd8963efd1fc6a506488495d951d5263988d26611fa19190614133565b611fb9565b60016401000276a3611fb89190614167565b5b6040518061014001604052808a6040015181526020018a6060015181526020013373ffffffffffffffffffffffffffffffffffffffff1681526020018981526020016000151581526020018a60800151151581526020018e815260200160008152602001600081526020018b81525060405160200161203891906142fd565b6040516020818303038152906040526040518663ffffffff1660e01b8152600401612067959493929190614390565b60408051808303816000875af1158015612085573d6000803e3d6000fd5b505050506040513d601f19601f820116820180604052508101906120a991906143ff565b50505050505050505050565b61214b816040516024016120c99190614483565b6040516020818303038152906040527f41304fac000000000000000000000000000000000000000000000000000000007bffffffffffffffffffffffffffffffffffffffffffffffffffffffff19166020820180517bffffffffffffffffffffffffffffffffffffffffffffffffffffffff8381831617835250505050612bdb565b50565b6121e481604051602401612162919061316f565b6040516020818303038152906040527f2c2ecbc2000000000000000000000000000000000000000000000000000000007bffffffffffffffffffffffffffffffffffffffffffffffffffffffff19166020820180517bffffffffffffffffffffffffffffffffffffffffffffffffffffffff8381831617835250505050612bdb565b50565b61227d816040516024016121fb9190612fa8565b6040516020818303038152906040527ff82c50f1000000000000000000000000000000000000000000000000000000007bffffffffffffffffffffffffffffffffffffffffffffffffffffffff19166020820180517bffffffffffffffffffffffffffffffffffffffffffffffffffffffff8381831617835250505050612bdb565b50565b6000600360009054906101000a900473ffffffffffffffffffffffffffffffffffffffff16905081600360006101000a81548173ffffffffffffffffffffffffffffffffffffffff021916908373ffffffffffffffffffffffffffffffffffffffff1602179055508173ffffffffffffffffffffffffffffffffffffffff168173ffffffffffffffffffffffffffffffffffffffff167f8be0079c531659141344cd1fd0a4f28419497f9722a3daafe3b4186f6b6457e060405160405180910390a35050565b61234e612d5c565b600081604001818152505060008160600181815250508473ffffffffffffffffffffffffffffffffffffffff168673ffffffffffffffffffffffffffffffffffffffff1610156124285785816000019073ffffffffffffffffffffffffffffffffffffffff16908173ffffffffffffffffffffffffffffffffffffffff168152505084816020019073ffffffffffffffffffffffffffffffffffffffff16908173ffffffffffffffffffffffffffffffffffffffff16815250508281606001818152505060008160800190151590811515815250506124b4565b84816000019073ffffffffffffffffffffffffffffffffffffffff16908173ffffffffffffffffffffffffffffffffffffffff168152505085816020019073ffffffffffffffffffffffffffffffffffffffff16908173ffffffffffffffffffffffffffffffffffffffff16815250508281604001818152505060018160800190151590811515815250505b60006040518060600160405280836000015173ffffffffffffffffffffffffffffffffffffffff168152602001836020015173ffffffffffffffffffffffffffffffffffffffff1681526020018662ffffff16815250905060006125387f000000000000000000000000000000000000000000000000000000000000000083612b0a565b90508073ffffffffffffffffffffffffffffffffffffffff1663128acb0830856080015115887fffffffffffffffffffffffffffffffffffffffffffffffffffffffffffffffff612589919061401c565b8760800151156125b957600173fffd8963efd1fc6a506488495d951d5263988d266125b49190614133565b6125cc565b60016401000276a36125cb9190614167565b5b6040518061014001604052808a6040015181526020018a6060015181526020013373ffffffffffffffffffffffffffffffffffffffff1681526020018981526020016001151581526020018a6080015115158152602001600081526020018c81526020018b8152602001600081525060405160200161264b91906142fd565b6040516020818303038152906040526040518663ffffffff1660e01b815260040161267a959493929190614390565b60408051808303816000875af1158015612698573d6000803e3d6000fd5b505050506040513d601f19601f820116820180604052508101906126bc91906143ff565b50505050505050505050565b6000808473ffffffffffffffffffffffffffffffffffffffff1663a9059cbb60e01b85856040516024016126fd92919061360f565b604051602081830303815290604052907bffffffffffffffffffffffffffffffffffffffffffffffffffffffff19166020820180517bffffffffffffffffffffffffffffffffffffffffffffffffffffffff83818316178352505050506040516127679190613f99565b6000604051808303816000865af19150503d80600081146127a4576040519150601f19603f3d011682016040523d82523d6000602084013e6127a9565b606091505b50915091508180156127d757506000815114806127d65750808060200190518101906127d59190613670565b5b5b612816576040517f08c379a000000000000000000000000000000000000000000000000000000000815260040161280d906144f1565b60405180910390fd5b5050505050565b60006128298383612b0a565b90508073ffffffffffffffffffffffffffffffffffffffff163373ffffffffffffffffffffffffffffffffffffffff161461286357600080fd5b92915050565b600082828461287891906139e3565b915081101561288657600080fd5b92915050565b7f000000000000000000000000000000000000000000000000000000000000000073ffffffffffffffffffffffffffffffffffffffff168473ffffffffffffffffffffffffffffffffffffffff161480156128e75750804710155b15612a11577f000000000000000000000000000000000000000000000000000000000000000073ffffffffffffffffffffffffffffffffffffffff1663d0e30db0826040518263ffffffff1660e01b81526004016000604051808303818588803b15801561295457600080fd5b505af1158015612968573d6000803e3d6000fd5b50505050507f000000000000000000000000000000000000000000000000000000000000000073ffffffffffffffffffffffffffffffffffffffff1663a9059cbb83836040518363ffffffff1660e01b81526004016129c892919061360f565b6020604051808303816000875af11580156129e7573d6000803e3d6000fd5b505050506040513d601f19601f82011682018060405250810190612a0b9190613670565b50612a63565b3073ffffffffffffffffffffffffffffffffffffffff168373ffffffffffffffffffffffffffffffffffffffff161415612a5557612a508483836126c8565b612a62565b612a6184848484612c04565b5b5b50505050565b612aff81604051602401612a7d9190614511565b6040516020818303038152906040527f2d5b6cb9000000000000000000000000000000000000000000000000000000007bffffffffffffffffffffffffffffffffffffffffffffffffffffffff19166020820180517bffffffffffffffffffffffffffffffffffffffffffffffffffffffff8381831617835250505050612bdb565b50565b600033905090565b6000816020015173ffffffffffffffffffffffffffffffffffffffff16826000015173ffffffffffffffffffffffffffffffffffffffff1610612b4c57600080fd5b82826000015183602001518460400151604051602001612b6e9392919061453b565b604051602081830303815290604052805190602001207fe34f199b19b2b4f47f68442619d555527d244f78a3297ea89325f843f87b8b5460001b604051602001612bba9392919061463c565b6040516020818303038152906040528051906020012060001c905092915050565b60008151905060006a636f6e736f6c652e6c6f679050602083016000808483855afa5050505050565b6000808573ffffffffffffffffffffffffffffffffffffffff166323b872dd60e01b868686604051602401612c3b93929190613975565b604051602081830303815290604052907bffffffffffffffffffffffffffffffffffffffffffffffffffffffff19166020820180517bffffffffffffffffffffffffffffffffffffffffffffffffffffffff8381831617835250505050604051612ca59190613f99565b6000604051808303816000865af19150503d8060008114612ce2576040519150601f19603f3d011682016040523d82523d6000602084013e612ce7565b606091505b5091509150818015612d155750600081511480612d14575080806020019051810190612d139190613670565b5b5b612d54576040517f08c379a0000000000000000000000000000000000000000000000000000000008152600401612d4b906146d0565b60405180910390fd5b505050505050565b6040518060a00160405280600073ffffffffffffffffffffffffffffffffffffffff168152602001600073ffffffffffffffffffffffffffffffffffffffff16815260200160008152602001600081526020016000151581525090565b600082825260208201905092915050565b7f4e6f742057455448390000000000000000000000000000000000000000000000600082015250565b6000612e00600983612db9565b9150612e0b82612dca565b602082019050919050565b60006020820190508181036000830152612e2f81612df3565b9050919050565b6000604051905090565b600080fd5b600080fd5b600073ffffffffffffffffffffffffffffffffffffffff82169050919050565b6000612e7582612e4a565b9050919050565b612e8581612e6a565b8114612e9057600080fd5b50565b600081359050612ea281612e7c565b92915050565b6000819050919050565b612ebb81612ea8565b8114612ec657600080fd5b50565b600081359050612ed881612eb2565b92915050565b60008060408385031215612ef557612ef4612e40565b5b6000612f0385828601612e93565b9250506020612f1485828601612ec9565b9150509250929050565b600080600080600060a08688031215612f3a57612f39612e40565b5b6000612f4888828901612ec9565b9550506020612f5988828901612ec9565b9450506040612f6a88828901612ec9565b9350506060612f7b88828901612ec9565b9250506080612f8c88828901612e93565b9150509295509295909350565b612fa281612ea8565b82525050565b6000602082019050612fbd6000830184612f99565b92915050565b6000819050919050565b6000612fe8612fe3612fde84612e4a565b612fc3565b612e4a565b9050919050565b6000612ffa82612fcd565b9050919050565b600061300c82612fef565b9050919050565b61301c81613001565b82525050565b60006020820190506130376000830184613013565b92915050565b600062ffffff82169050919050565b6130558161303d565b811461306057600080fd5b50565b6000813590506130728161304c565b92915050565b600080600080600060a0868803121561309457613093612e40565b5b60006130a288828901612e93565b95505060206130b388828901612ec9565b94505060406130c488828901612e93565b93505060606130d588828901613063565b92505060806130e688828901612ec9565b9150509295509295909350565b60006020828403121561310957613108612e40565b5b600061311784828501612e93565b91505092915050565b6000806040838503121561313757613136612e40565b5b600061314585828601612ec9565b925050602061315685828601612e93565b9150509250929050565b61316981612e6a565b82525050565b60006020820190506131846000830184613160565b92915050565b600080600080600060a086880312156131a6576131a5612e40565b5b60006131b488828901612e93565b95505060206131c588828901612ec9565b94505060406131d688828901612e93565b93505060606131e788828901612e93565b92505060806131f888828901612ec9565b9150509295509295909350565b600061321082612fef565b9050919050565b61322081613205565b82525050565b600060208201905061323b6000830184613217565b92915050565b60008060008060008060c0878903121561325e5761325d612e40565b5b600061326c89828a01612e93565b965050602061327d89828a01612ec9565b955050604061328e89828a01612e93565b945050606061329f89828a01612ec9565b93505060806132b089828a01612ec9565b92505060a06132c189828a01612e93565b9150509295509295509295565b6000806000606084860312156132e7576132e6612e40565b5b60006132f586828701612e93565b935050602061330686828701612ec9565b925050604061331786828701612ec9565b9150509250925092565b600080600080600060a0868803121561333d5761333c612e40565b5b600061334b88828901612e93565b955050602061335c88828901612e93565b945050604061336d88828901613063565b935050606061337e88828901612ec9565b925050608061338f88828901612ec9565b9150509295509295909350565b60006133a782612fef565b9050919050565b6133b78161339c565b82525050565b60006020820190506133d260008301846133ae565b92915050565b6000806000606084860312156133f1576133f0612e40565b5b60006133ff86828701612e93565b935050602061341086828701612ec9565b925050604061342186828701612e93565b9150509250925092565b600080fd5b600080fd5b600080fd5b60008083601f8401126134505761344f61342b565b5b8235905067ffffffffffffffff81111561346d5761346c613430565b5b60208301915083600182028301111561348957613488613435565b5b9250929050565b600080600080606085870312156134aa576134a9612e40565b5b60006134b887828801612ec9565b94505060206134c987828801612ec9565b935050604085013567ffffffffffffffff8111156134ea576134e9612e45565b5b6134f68782880161343a565b925092505092959194509250565b6000819050919050565b61351781613504565b811461352257600080fd5b50565b6000813590506135348161350e565b92915050565b6000806000806060858703121561355457613553612e40565b5b600061356287828801613525565b945050602061357387828801613525565b935050604085013567ffffffffffffffff81111561359457613593612e45565b5b6135a08782880161343a565b925092505092959194509250565b600060c0820190506135c36000830189612f99565b6135d06020830188612f99565b6135dd6040830187612f99565b6135ea6060830186612f99565b6135f76080830185612f99565b61360460a0830184612f99565b979650505050505050565b60006040820190506136246000830185613160565b6136316020830184612f99565b9392505050565b60008115159050919050565b61364d81613638565b811461365857600080fd5b50565b60008151905061366a81613644565b92915050565b60006020828403121561368657613685612e40565b5b60006136948482850161365b565b91505092915050565b7f4e487b7100000000000000000000000000000000000000000000000000000000600052601260045260246000fd5b7f4e487b7100000000000000000000000000000000000000000000000000000000600052601160045260246000fd5b600061370682612ea8565b915061371183612ea8565b9250826137215761372061369d565b5b828204905092915050565b600061373782612ea8565b915061374283612ea8565b9250817fffffffffffffffffffffffffffffffffffffffffffffffffffffffffffffffff048311821515161561377b5761377a6136cc565b5b828202905092915050565b600061379182612ea8565b915061379c83612ea8565b9250828210156137af576137ae6136cc565b5b828203905092915050565b6000815190506137c981612eb2565b92915050565b6000602082840312156137e5576137e4612e40565b5b60006137f3848285016137ba565b91505092915050565b7f496e73756666696369656e742057455448390000000000000000000000000000600082015250565b6000613832601283612db9565b915061383d826137fc565b602082019050919050565b6000602082019050818103600083015261386181613825565b9050919050565b6000819050919050565b600061388d61388861388384613868565b612fc3565b612ea8565b9050919050565b61389d81613872565b82525050565b60006080820190506138b86000830187613160565b6138c56020830186612f99565b6138d26040830185613894565b6138df6060830184613160565b95945050505050565b60008060008060008060c0878903121561390557613904612e40565b5b600061391389828a016137ba565b965050602061392489828a016137ba565b955050604061393589828a016137ba565b945050606061394689828a016137ba565b935050608061395789828a016137ba565b92505060a061396889828a016137ba565b9150509295509295509295565b600060608201905061398a6000830186613160565b6139976020830185613160565b6139a46040830184612f99565b949350505050565b60006060820190506139c16000830186613160565b6139ce6020830185612f99565b6139db6040830184613160565b949350505050565b60006139ee82612ea8565b91506139f983612ea8565b9250827fffffffffffffffffffffffffffffffffffffffffffffffffffffffffffffffff03821115613a2e57613a2d6136cc565b5b828201905092915050565b6000819050919050565b600061ffff82169050919050565b6000613a6c613a67613a6284613a39565b612fc3565b613a43565b9050919050565b613a7c81613a51565b82525050565b6000608082019050613a976000830187613160565b613aa46020830186612f99565b613ab16040830185613160565b613abe6060830184613a73565b95945050505050565b600060a082019050613adc6000830188613160565b613ae96020830187612f99565b613af66040830186613894565b613b036060830185613a73565b613b106080830184613160565b9695505050505050565b7f496e73756666696369656e7420746f6b656e0000000000000000000000000000600082015250565b6000613b50601283612db9565b9150613b5b82613b1a565b602082019050919050565b60006020820190508181036000830152613b7f81613b43565b9050919050565b600080fd5b6000601f19601f8301169050919050565b7f4e487b7100000000000000000000000000000000000000000000000000000000600052604160045260246000fd5b613bd482613b8b565b810181811067ffffffffffffffff82111715613bf357613bf2613b9c565b5b80604052505050565b6000613c06612e36565b9050613c128282613bcb565b919050565b600060608284031215613c2d57613c2c613b86565b5b613c376060613bfc565b90506000613c4784828501612e93565b6000830152506020613c5b84828501612e93565b6020830152506040613c6f84828501613063565b60408301525092915050565b600081359050613c8a81613644565b92915050565b60006101808284031215613ca757613ca6613b86565b5b613cb2610140613bfc565b90506000613cc284828501612ec9565b6000830152506020613cd684828501612ec9565b6020830152506040613cea84828501612e93565b6040830152506060613cfe84828501613c17565b60608301525060c0613d1284828501613c7b565b60808301525060e0613d2684828501613c7b565b60a083015250610100613d3b84828501612ec9565b60c083015250610120613d5084828501612ec9565b60e083015250610140613d6584828501612ec9565b61010083015250610160613d7b84828501612ec9565b6101208301525092915050565b60006101808284031215613d9f57613d9e612e40565b5b6000613dad84828501613c90565b91505092915050565b7f4f776e61626c653a206e6577206f776e657220697320746865207a65726f206160008201527f6464726573730000000000000000000000000000000000000000000000000000602082015250565b6000613e12602683612db9565b9150613e1d82613db6565b604082019050919050565b60006020820190508181036000830152613e4181613e05565b9050919050565b6000613e5382612e6a565b9050919050565b613e6381613e48565b8114613e6e57600080fd5b50565b600081519050613e8081613e5a565b92915050565b600060208284031215613e9c57613e9b612e40565b5b6000613eaa84828501613e71565b91505092915050565b7f4f776e61626c653a2063616c6c6572206973206e6f7420746865206f776e6572600082015250565b6000613ee9602083612db9565b9150613ef482613eb3565b602082019050919050565b60006020820190508181036000830152613f1881613edc565b9050919050565b600081519050919050565b600081905092915050565b60005b83811015613f53578082015181840152602081019050613f38565b83811115613f62576000848401525b50505050565b6000613f7382613f1f565b613f7d8185613f2a565b9350613f8d818560208601613f35565b80840191505092915050565b6000613fa58284613f68565b915081905092915050565b7f5354450000000000000000000000000000000000000000000000000000000000600082015250565b6000613fe6600383612db9565b9150613ff182613fb0565b602082019050919050565b6000602082019050818103600083015261401581613fd9565b9050919050565b600061402782613504565b915061403283613504565b9250827f7fffffffffffffffffffffffffffffffffffffffffffffffffffffffffffffff0482116000841360008413161615614071576140706136cc565b5b817f800000000000000000000000000000000000000000000000000000000000000005831260008412600084131616156140ae576140ad6136cc565b5b827f800000000000000000000000000000000000000000000000000000000000000005821260008413600084121616156140eb576140ea6136cc565b5b827f7fffffffffffffffffffffffffffffffffffffffffffffffffffffffffffffff0582126000841260008412161615614128576141276136cc565b5b828202905092915050565b600061413e82612e4a565b915061414983612e4a565b92508282101561415c5761415b6136cc565b5b828203905092915050565b600061417282612e4a565b915061417d83612e4a565b92508273ffffffffffffffffffffffffffffffffffffffff038211156141a6576141a56136cc565b5b828201905092915050565b6141ba81612ea8565b82525050565b6141c981612e6a565b82525050565b6141d88161303d565b82525050565b6060820160008201516141f460008501826141c0565b50602082015161420760208501826141c0565b50604082015161421a60408501826141cf565b50505050565b61422981613638565b82525050565b6101808201600082015161424660008501826141b1565b50602082015161425960208501826141b1565b50604082015161426c60408501826141c0565b50606082015161427f60608501826141de565b50608082015161429260c0850182614220565b5060a08201516142a560e0850182614220565b5060c08201516142b96101008501826141b1565b5060e08201516142cd6101208501826141b1565b506101008201516142e26101408501826141b1565b506101208201516142f76101608501826141b1565b50505050565b600061018082019050614313600083018461422f565b92915050565b61432281613638565b82525050565b61433181613504565b82525050565b61434081612e4a565b82525050565b600082825260208201905092915050565b600061436282613f1f565b61436c8185614346565b935061437c818560208601613f35565b61438581613b8b565b840191505092915050565b600060a0820190506143a56000830188613160565b6143b26020830187614319565b6143bf6040830186614328565b6143cc6060830185614337565b81810360808301526143de8184614357565b90509695505050505050565b6000815190506143f98161350e565b92915050565b6000806040838503121561441657614415612e40565b5b6000614424858286016143ea565b9250506020614435858286016143ea565b9150509250929050565b600081519050919050565b60006144558261443f565b61445f8185612db9565b935061446f818560208601613f35565b61447881613b8b565b840191505092915050565b6000602082019050818103600083015261449d818461444a565b905092915050565b7f5354000000000000000000000000000000000000000000000000000000000000600082015250565b60006144db600283612db9565b91506144e6826144a5565b602082019050919050565b6000602082019050818103600083015261450a816144ce565b9050919050565b60006020820190506145266000830184614328565b92915050565b6145358161303d565b82525050565b60006060820190506145506000830186613160565b61455d6020830185613160565b61456a604083018461452c565b949350505050565b600081905092915050565b7fff00000000000000000000000000000000000000000000000000000000000000600082015250565b60006145b3600183614572565b91506145be8261457d565b600182019050919050565b60008160601b9050919050565b60006145e1826145c9565b9050919050565b60006145f3826145d6565b9050919050565b61460b61460682612e6a565b6145e8565b82525050565b6000819050919050565b6000819050919050565b61463661463182614611565b61461b565b82525050565b6000614647826145a6565b915061465382866145fa565b6014820191506146638285614625565b6020820191506146738284614625565b602082019150819050949350505050565b7f5354460000000000000000000000000000000000000000000000000000000000600082015250565b60006146ba600383612db9565b91506146c582614684565b602082019050919050565b600060208201905081810360008301526146e9816146ad565b905091905056fea2646970667358221220827d62d123daaed351d54f1cd93e9c197164d638bbd650912239aabf82eff53b64736f6c634300080a0033",
  "linkReferences": {},
  "deployedLinkReferences": {}
}