{
  "_format": "hh-sol-artifact-1",
  "contractName": "AaveIntegrationHelper",
  "sourceName": "contracts/AaveIntegrationHelper.sol",
  "abi": [
    {
      "inputs": [
        {
          "internalType": "address",
          "name": "_poolAddress",
          "type": "address"
        },
        {
          "internalType": "address",
          "name": "_oracleAddress",
          "type": "address"
        },
        {
          "internalType": "address",
          "name": "_aaveAusdcTokenAddress",
          "type": "address"
        }
      ],
      "stateMutability": "nonpayable",
      "type": "constructor"
    },
    {
      "inputs": [
        {
          "internalType": "address",
          "name": "tokenBorrowed",
          "type": "address"
        },
        {
          "internalType": "uint256",
          "name": "units",
          "type": "uint256"
        },
        {
          "internalType": "address",
          "name": "collateralAddress",
          "type": "address"
        },
        {
          "internalType": "address",
          "name": "user",
          "type": "address"
        },
        {
          "internalType": "uint256",
          "name": "targetHealth",
          "type": "uint256"
        }
      ],
      "name": "_repayAndWithdrawCollateral",
      "outputs": [],
      "stateMutability": "nonpayable",
      "type": "function"
    },
    {
      "inputs": [
        {
          "internalType": "address",
          "name": "tokenToBorrow",
          "type": "address"
        },
        {
          "internalType": "uint256",
          "name": "units",
          "type": "uint256"
        },
        {
          "internalType": "address",
          "name": "collateralAddress",
          "type": "address"
        },
        {
          "internalType": "uint256",
          "name": "flashCollateral",
          "type": "uint256"
        },
        {
          "internalType": "uint256",
          "name": "userCollateral",
          "type": "uint256"
        },
        {
          "internalType": "address",
          "name": "user",
          "type": "address"
        }
      ],
      "name": "_suppllyCollateralAndBorrow",
      "outputs": [],
      "stateMutability": "nonpayable",
      "type": "function"
    },
    {
      "inputs": [],
      "name": "aUsdc",
      "outputs": [
        {
          "internalType": "contract IERC20",
          "name": "",
          "type": "address"
        }
      ],
      "stateMutability": "view",
      "type": "function"
    },
    {
      "inputs": [
        {
          "internalType": "uint256",
          "name": "healthFactor",
          "type": "uint256"
        },
        {
          "internalType": "uint256",
          "name": "totalCollateralBase",
          "type": "uint256"
        },
        {
          "internalType": "uint256",
          "name": "totalBorrowBase",
          "type": "uint256"
        },
        {
          "internalType": "uint256",
          "name": "liquidationThreshold",
          "type": "uint256"
        },
        {
          "internalType": "address",
          "name": "collateralAddress",
          "type": "address"
        }
      ],
      "name": "calculateWithdraw",
      "outputs": [
        {
          "internalType": "uint256",
          "name": "",
          "type": "uint256"
        }
      ],
      "stateMutability": "view",
      "type": "function"
    },
    {
      "inputs": [
        {
          "internalType": "address",
          "name": "tokenAddress",
          "type": "address"
        },
        {
          "internalType": "uint256",
          "name": "units",
          "type": "uint256"
        },
        {
          "internalType": "uint256",
          "name": "amount",
          "type": "uint256"
        }
      ],
      "name": "depositToken",
      "outputs": [],
      "stateMutability": "nonpayable",
      "type": "function"
    },
    {
      "inputs": [],
      "name": "getPoolAddress",
      "outputs": [],
      "stateMutability": "view",
      "type": "function"
    },
    {
      "inputs": [
        {
          "internalType": "address",
          "name": "assest",
          "type": "address"
        }
      ],
      "name": "getPrice",
      "outputs": [
        {
          "internalType": "uint256",
          "name": "",
          "type": "uint256"
        }
      ],
      "stateMutability": "view",
      "type": "function"
    },
    {
      "inputs": [
        {
          "internalType": "address",
          "name": "user",
          "type": "address"
        }
      ],
      "name": "getUserData",
      "outputs": [
        {
          "internalType": "uint256",
          "name": "totalCollateralBase",
          "type": "uint256"
        },
        {
          "internalType": "uint256",
          "name": "totalDebtBase",
          "type": "uint256"
        },
        {
          "internalType": "uint256",
          "name": "availableBorrowsBase",
          "type": "uint256"
        },
        {
          "internalType": "uint256",
          "name": "currentLiquidationThreshold",
          "type": "uint256"
        },
        {
          "internalType": "uint256",
          "name": "ltv",
          "type": "uint256"
        },
        {
          "internalType": "uint256",
          "name": "healthFactor",
          "type": "uint256"
        }
      ],
      "stateMutability": "view",
      "type": "function"
    },
    {
      "inputs": [],
      "name": "oracleAddress",
      "outputs": [
        {
          "internalType": "contract IPriceOracleGetter",
          "name": "",
          "type": "address"
        }
      ],
      "stateMutability": "view",
      "type": "function"
    },
    {
      "inputs": [],
      "name": "poolAddress",
      "outputs": [
        {
          "internalType": "contract IPool",
          "name": "",
          "type": "address"
        }
      ],
      "stateMutability": "view",
      "type": "function"
    },
    {
      "inputs": [
        {
          "internalType": "address",
          "name": "tokenAddress",
          "type": "address"
        },
        {
          "internalType": "uint256",
          "name": "totalAmount",
          "type": "uint256"
        }
      ],
      "name": "withdrawToken",
      "outputs": [],
      "stateMutability": "nonpayable",
      "type": "function"
    }
  ],
  "bytecode": "0x60806040523480156200001157600080fd5b5060405162001d2c38038062001d2c83398181016040528101906200003791906200016c565b826000806101000a81548173ffffffffffffffffffffffffffffffffffffffff021916908373ffffffffffffffffffffffffffffffffffffffff16021790555081600160006101000a81548173ffffffffffffffffffffffffffffffffffffffff021916908373ffffffffffffffffffffffffffffffffffffffff16021790555080600260006101000a81548173ffffffffffffffffffffffffffffffffffffffff021916908373ffffffffffffffffffffffffffffffffffffffff160217905550505050620001c8565b600080fd5b600073ffffffffffffffffffffffffffffffffffffffff82169050919050565b6000620001348262000107565b9050919050565b620001468162000127565b81146200015257600080fd5b50565b60008151905062000166816200013b565b92915050565b60008060006060848603121562000188576200018762000102565b5b6000620001988682870162000155565b9350506020620001ab8682870162000155565b9250506040620001be8682870162000155565b9150509250925092565b611b5480620001d86000396000f3fe608060405234801561001057600080fd5b50600436106100a95760003560e01c80637058611411610071578063705861141461016657806399c6d2de146101825780639e281a981461019e578063a89ae4ba146101ba578063f586c6d9146101d8578063ffc9896b146101e2576100a9565b806305116f0b146100ae5780631755ff21146100de57806341976e09146100fc578063620a22621461012c57806365196e1e14610148575b600080fd5b6100c860048036038101906100c3919061116f565b610217565b6040516100d591906111f9565b60405180910390f35b6100e6610315565b6040516100f39190611273565b60405180910390f35b6101166004803603810190610111919061128e565b610339565b60405161012391906111f9565b60405180910390f35b610146600480360381019061014191906112bb565b6103e3565b005b61015061098f565b60405161015d9190611357565b60405180910390f35b610180600480360381019061017b9190611372565b6109b5565b005b61019c600480360381019061019791906113ff565b610af5565b005b6101b860048036038101906101b39190611452565b610cac565b005b6101c2610d51565b6040516101cf91906114b3565b60405180910390f35b6101e0610d77565b005b6101fc60048036038101906101f7919061128e565b610e09565b60405161020e969594939291906114ce565b60405180910390f35b600080606484610227919061158d565b9050600081868961023891906115be565b610242919061158d565b9050600081886102529190611618565b90506000600160009054906101000a900473ffffffffffffffffffffffffffffffffffffffff1673ffffffffffffffffffffffffffffffffffffffff1663b3596f07876040518263ffffffff1660e01b81526004016102b1919061165b565b602060405180830381865afa1580156102ce573d6000803e3d6000fd5b505050506040513d601f19601f820116820180604052508101906102f2919061168b565b905060008183610302919061158d565b9050809550505050505095945050505050565b60008054906101000a900473ffffffffffffffffffffffffffffffffffffffff1681565b600080600160009054906101000a900473ffffffffffffffffffffffffffffffffffffffff1673ffffffffffffffffffffffffffffffffffffffff1663b3596f07846040518263ffffffff1660e01b8152600401610397919061165b565b602060405180830381865afa1580156103b4573d6000803e3d6000fd5b505050506040513d601f19601f820116820180604052508101906103d8919061168b565b905080915050919050565b6104216040518060400160405280600581526020017f557365723a000000000000000000000000000000000000000000000000000000815250610ee2565b61042a82610f7b565b60008054906101000a900473ffffffffffffffffffffffffffffffffffffffff1673ffffffffffffffffffffffffffffffffffffffff1663573ade8186866002866040518563ffffffff1660e01b815260040161048a94939291906116f3565b6020604051808303816000875af11580156104a9573d6000803e3d6000fd5b505050506040513d601f19601f820116820180604052508101906104cd919061168b565b5060008060008060009054906101000a900473ffffffffffffffffffffffffffffffffffffffff1673ffffffffffffffffffffffffffffffffffffffff1663bf92857c866040518263ffffffff1660e01b815260040161052d919061165b565b60c060405180830381865afa15801561054a573d6000803e3d6000fd5b505050506040513d601f19601f8201168201806040525081019061056e9190611738565b5050935050925092506105b56040518060400160405280601081526020017f546f74616c204465627420426173653a00000000000000000000000000000000815250610ee2565b6105be82611014565b6000821161081157600260009054906101000a900473ffffffffffffffffffffffffffffffffffffffff1673ffffffffffffffffffffffffffffffffffffffff166323b872dd8630600260009054906101000a900473ffffffffffffffffffffffffffffffffffffffff1673ffffffffffffffffffffffffffffffffffffffff166370a082318a6040518263ffffffff1660e01b8152600401610661919061165b565b602060405180830381865afa15801561067e573d6000803e3d6000fd5b505050506040513d601f19601f820116820180604052508101906106a2919061168b565b6040518463ffffffff1660e01b81526004016106c0939291906117c5565b6020604051808303816000875af11580156106df573d6000803e3d6000fd5b505050506040513d601f19601f820116820180604052508101906107039190611834565b506107426040518060400160405280601681526020017f546f74616c20436f6c6c61746572616c20426173653a00000000000000000000815250610ee2565b61074b83611014565b60008054906101000a900473ffffffffffffffffffffffffffffffffffffffff1673ffffffffffffffffffffffffffffffffffffffff166369328dec877fffffffffffffffffffffffffffffffffffffffffffffffffffffffffffffffff886040518463ffffffff1660e01b81526004016107c893929190611861565b6020604051808303816000875af11580156107e7573d6000803e3d6000fd5b505050506040513d601f19601f8201168201806040525081019061080b919061168b565b50610985565b6000610820858585858b610217565b905060008054906101000a900473ffffffffffffffffffffffffffffffffffffffff1673ffffffffffffffffffffffffffffffffffffffff166369328dec8883896040518463ffffffff1660e01b815260040161087f93929190611861565b6020604051808303816000875af115801561089e573d6000803e3d6000fd5b505050506040513d601f19601f820116820180604052508101906108c2919061168b565b506109016040518060400160405280601d81526020017f557365722042616c616e63652061667465722077697468647261773a20000000815250610ee2565b6109838773ffffffffffffffffffffffffffffffffffffffff166370a08231886040518263ffffffff1660e01b815260040161093d919061165b565b602060405180830381865afa15801561095a573d6000803e3d6000fd5b505050506040513d601f19601f8201168201806040525081019061097e919061168b565b611014565b505b5050505050505050565b600260009054906101000a900473ffffffffffffffffffffffffffffffffffffffff1681565b600082846109c39190611898565b905060008054906101000a900473ffffffffffffffffffffffffffffffffffffffff1673ffffffffffffffffffffffffffffffffffffffff1663617ba03786838560006040518563ffffffff1660e01b8152600401610a259493929190611937565b600060405180830381600087803b158015610a3f57600080fd5b505af1158015610a53573d6000803e3d6000fd5b5050505060008054906101000a900473ffffffffffffffffffffffffffffffffffffffff1673ffffffffffffffffffffffffffffffffffffffff1663a415bcad888860026000876040518663ffffffff1660e01b8152600401610aba95949392919061197c565b600060405180830381600087803b158015610ad457600080fd5b505af1158015610ae8573d6000803e3d6000fd5b5050505050505050505050565b8273ffffffffffffffffffffffffffffffffffffffff166323b872dd3330846040518463ffffffff1660e01b8152600401610b32939291906117c5565b6020604051808303816000875af1158015610b51573d6000803e3d6000fd5b505050506040513d601f19601f82011682018060405250810190610b759190611834565b508273ffffffffffffffffffffffffffffffffffffffff1663095ea7b360008054906101000a900473ffffffffffffffffffffffffffffffffffffffff16836040518363ffffffff1660e01b8152600401610bd19291906119cf565b6020604051808303816000875af1158015610bf0573d6000803e3d6000fd5b505050506040513d601f19601f82011682018060405250810190610c149190611834565b5060008054906101000a900473ffffffffffffffffffffffffffffffffffffffff1673ffffffffffffffffffffffffffffffffffffffff1663617ba03784843060006040518563ffffffff1660e01b8152600401610c759493929190611937565b600060405180830381600087803b158015610c8f57600080fd5b505af1158015610ca3573d6000803e3d6000fd5b50505050505050565b60008054906101000a900473ffffffffffffffffffffffffffffffffffffffff1673ffffffffffffffffffffffffffffffffffffffff166369328dec8383336040518463ffffffff1660e01b8152600401610d0993929190611861565b6020604051808303816000875af1158015610d28573d6000803e3d6000fd5b505050506040513d601f19601f82011682018060405250810190610d4c919061168b565b505050565b600160009054906101000a900473ffffffffffffffffffffffffffffffffffffffff1681565b60008054906101000a900473ffffffffffffffffffffffffffffffffffffffff1673ffffffffffffffffffffffffffffffffffffffff16630542975c6040518163ffffffff1660e01b8152600401602060405180830381865afa158015610de2573d6000803e3d6000fd5b505050506040513d601f19601f82011682018060405250810190610e069190611a36565b50565b60008060008060008060008060008060008060008054906101000a900473ffffffffffffffffffffffffffffffffffffffff1673ffffffffffffffffffffffffffffffffffffffff1663bf92857c8e6040518263ffffffff1660e01b8152600401610e74919061165b565b60c060405180830381865afa158015610e91573d6000803e3d6000fd5b505050506040513d601f19601f82011682018060405250810190610eb59190611738565b9550955095509550955095508585858585859b509b509b509b509b509b5050505050505091939550919395565b610f7881604051602401610ef69190611afc565b6040516020818303038152906040527f41304fac000000000000000000000000000000000000000000000000000000007bffffffffffffffffffffffffffffffffffffffffffffffffffffffff19166020820180517bffffffffffffffffffffffffffffffffffffffffffffffffffffffff83818316178352505050506110ad565b50565b61101181604051602401610f8f919061165b565b6040516020818303038152906040527f2c2ecbc2000000000000000000000000000000000000000000000000000000007bffffffffffffffffffffffffffffffffffffffffffffffffffffffff19166020820180517bffffffffffffffffffffffffffffffffffffffffffffffffffffffff83818316178352505050506110ad565b50565b6110aa8160405160240161102891906111f9565b6040516020818303038152906040527ff82c50f1000000000000000000000000000000000000000000000000000000007bffffffffffffffffffffffffffffffffffffffffffffffffffffffff19166020820180517bffffffffffffffffffffffffffffffffffffffffffffffffffffffff83818316178352505050506110ad565b50565b60008151905060006a636f6e736f6c652e6c6f679050602083016000808483855afa5050505050565b600080fd5b6000819050919050565b6110ee816110db565b81146110f957600080fd5b50565b60008135905061110b816110e5565b92915050565b600073ffffffffffffffffffffffffffffffffffffffff82169050919050565b600061113c82611111565b9050919050565b61114c81611131565b811461115757600080fd5b50565b60008135905061116981611143565b92915050565b600080600080600060a0868803121561118b5761118a6110d6565b5b6000611199888289016110fc565b95505060206111aa888289016110fc565b94505060406111bb888289016110fc565b93505060606111cc888289016110fc565b92505060806111dd8882890161115a565b9150509295509295909350565b6111f3816110db565b82525050565b600060208201905061120e60008301846111ea565b92915050565b6000819050919050565b600061123961123461122f84611111565b611214565b611111565b9050919050565b600061124b8261121e565b9050919050565b600061125d82611240565b9050919050565b61126d81611252565b82525050565b60006020820190506112886000830184611264565b92915050565b6000602082840312156112a4576112a36110d6565b5b60006112b28482850161115a565b91505092915050565b600080600080600060a086880312156112d7576112d66110d6565b5b60006112e58882890161115a565b95505060206112f6888289016110fc565b94505060406113078882890161115a565b93505060606113188882890161115a565b9250506080611329888289016110fc565b9150509295509295909350565b600061134182611240565b9050919050565b61135181611336565b82525050565b600060208201905061136c6000830184611348565b92915050565b60008060008060008060c0878903121561138f5761138e6110d6565b5b600061139d89828a0161115a565b96505060206113ae89828a016110fc565b95505060406113bf89828a0161115a565b94505060606113d089828a016110fc565b93505060806113e189828a016110fc565b92505060a06113f289828a0161115a565b9150509295509295509295565b600080600060608486031215611418576114176110d6565b5b60006114268682870161115a565b9350506020611437868287016110fc565b9250506040611448868287016110fc565b9150509250925092565b60008060408385031215611469576114686110d6565b5b60006114778582860161115a565b9250506020611488858286016110fc565b9150509250929050565b600061149d82611240565b9050919050565b6114ad81611492565b82525050565b60006020820190506114c860008301846114a4565b92915050565b600060c0820190506114e360008301896111ea565b6114f060208301886111ea565b6114fd60408301876111ea565b61150a60608301866111ea565b61151760808301856111ea565b61152460a08301846111ea565b979650505050505050565b7f4e487b7100000000000000000000000000000000000000000000000000000000600052601260045260246000fd5b7f4e487b7100000000000000000000000000000000000000000000000000000000600052601160045260246000fd5b6000611598826110db565b91506115a3836110db565b9250826115b3576115b261152f565b5b828204905092915050565b60006115c9826110db565b91506115d4836110db565b9250817fffffffffffffffffffffffffffffffffffffffffffffffffffffffffffffffff048311821515161561160d5761160c61155e565b5b828202905092915050565b6000611623826110db565b915061162e836110db565b9250828210156116415761164061155e565b5b828203905092915050565b61165581611131565b82525050565b6000602082019050611670600083018461164c565b92915050565b600081519050611685816110e5565b92915050565b6000602082840312156116a1576116a06110d6565b5b60006116af84828501611676565b91505092915050565b6000819050919050565b60006116dd6116d86116d3846116b8565b611214565b6110db565b9050919050565b6116ed816116c2565b82525050565b6000608082019050611708600083018761164c565b61171560208301866111ea565b61172260408301856116e4565b61172f606083018461164c565b95945050505050565b60008060008060008060c08789031215611755576117546110d6565b5b600061176389828a01611676565b965050602061177489828a01611676565b955050604061178589828a01611676565b945050606061179689828a01611676565b93505060806117a789828a01611676565b92505060a06117b889828a01611676565b9150509295509295509295565b60006060820190506117da600083018661164c565b6117e7602083018561164c565b6117f460408301846111ea565b949350505050565b60008115159050919050565b611811816117fc565b811461181c57600080fd5b50565b60008151905061182e81611808565b92915050565b60006020828403121561184a576118496110d6565b5b60006118588482850161181f565b91505092915050565b6000606082019050611876600083018661164c565b61188360208301856111ea565b611890604083018461164c565b949350505050565b60006118a3826110db565b91506118ae836110db565b9250827fffffffffffffffffffffffffffffffffffffffffffffffffffffffffffffffff038211156118e3576118e261155e565b5b828201905092915050565b6000819050919050565b600061ffff82169050919050565b600061192161191c611917846118ee565b611214565b6118f8565b9050919050565b61193181611906565b82525050565b600060808201905061194c600083018761164c565b61195960208301866111ea565b611966604083018561164c565b6119736060830184611928565b95945050505050565b600060a082019050611991600083018861164c565b61199e60208301876111ea565b6119ab60408301866116e4565b6119b86060830185611928565b6119c5608083018461164c565b9695505050505050565b60006040820190506119e4600083018561164c565b6119f160208301846111ea565b9392505050565b6000611a0382611131565b9050919050565b611a13816119f8565b8114611a1e57600080fd5b50565b600081519050611a3081611a0a565b92915050565b600060208284031215611a4c57611a4b6110d6565b5b6000611a5a84828501611a21565b91505092915050565b600081519050919050565b600082825260208201905092915050565b60005b83811015611a9d578082015181840152602081019050611a82565b83811115611aac576000848401525b50505050565b6000601f19601f8301169050919050565b6000611ace82611a63565b611ad88185611a6e565b9350611ae8818560208601611a7f565b611af181611ab2565b840191505092915050565b60006020820190508181036000830152611b168184611ac3565b90509291505056fea26469706673582212200ed1783a1221509685550e37aa9dae3c211663d567de2f7250bc2b55bbb980d264736f6c634300080a0033",
  "linkReferences": {},
  "deployedLinkReferences": {}
}